{
  "address": "0xc67A1257231a596F8f7bcF57d501c21C034D112D",
  "abi": [
    {
      "inputs": [
        {
          "internalType": "address",
          "name": "_customProxy",
          "type": "address"
        },
        {
          "internalType": "string",
          "name": "_targetChainName",
          "type": "string"
        }
      ],
      "stateMutability": "nonpayable",
      "type": "constructor"
    },
    {
      "anonymous": false,
      "inputs": [
        {
          "indexed": true,
          "internalType": "address",
          "name": "owner",
          "type": "address"
        },
        {
          "indexed": true,
          "internalType": "address",
          "name": "approved",
          "type": "address"
        },
        {
          "indexed": true,
          "internalType": "uint256",
          "name": "tokenId",
          "type": "uint256"
        }
      ],
      "name": "Approval",
      "type": "event"
    },
    {
      "anonymous": false,
      "inputs": [
        {
          "indexed": true,
          "internalType": "address",
          "name": "owner",
          "type": "address"
        },
        {
          "indexed": true,
          "internalType": "address",
          "name": "operator",
          "type": "address"
        },
        {
          "indexed": false,
          "internalType": "bool",
          "name": "approved",
          "type": "bool"
        }
      ],
      "name": "ApprovalForAll",
      "type": "event"
    },
    {
      "anonymous": false,
      "inputs": [
        {
          "indexed": true,
          "internalType": "address",
          "name": "sender",
          "type": "address"
        }
      ],
      "name": "PreparingToMint",
      "type": "event"
    },
    {
      "anonymous": false,
      "inputs": [
        {
          "indexed": true,
          "internalType": "bytes32",
          "name": "role",
          "type": "bytes32"
        },
        {
          "indexed": true,
          "internalType": "bytes32",
          "name": "previousAdminRole",
          "type": "bytes32"
        },
        {
          "indexed": true,
          "internalType": "bytes32",
          "name": "newAdminRole",
          "type": "bytes32"
        }
      ],
      "name": "RoleAdminChanged",
      "type": "event"
    },
    {
      "anonymous": false,
      "inputs": [
        {
          "indexed": true,
          "internalType": "bytes32",
          "name": "role",
          "type": "bytes32"
        },
        {
          "indexed": true,
          "internalType": "address",
          "name": "account",
          "type": "address"
        },
        {
          "indexed": true,
          "internalType": "address",
          "name": "sender",
          "type": "address"
        }
      ],
      "name": "RoleGranted",
      "type": "event"
    },
    {
      "anonymous": false,
      "inputs": [
        {
          "indexed": true,
          "internalType": "bytes32",
          "name": "role",
          "type": "bytes32"
        },
        {
          "indexed": true,
          "internalType": "address",
          "name": "account",
          "type": "address"
        },
        {
          "indexed": true,
          "internalType": "address",
          "name": "sender",
          "type": "address"
        }
      ],
      "name": "RoleRevoked",
      "type": "event"
    },
    {
      "anonymous": false,
      "inputs": [
        {
          "indexed": true,
          "internalType": "address",
          "name": "from",
          "type": "address"
        },
        {
          "indexed": true,
          "internalType": "address",
          "name": "to",
          "type": "address"
        },
        {
          "indexed": true,
          "internalType": "uint256",
          "name": "tokenId",
          "type": "uint256"
        }
      ],
      "name": "Transfer",
      "type": "event"
    },
    {
      "inputs": [],
      "name": "DEFAULT_ADMIN_ROLE",
      "outputs": [
        {
          "internalType": "bytes32",
          "name": "",
          "type": "bytes32"
        }
      ],
      "stateMutability": "view",
      "type": "function"
    },
    {
      "inputs": [],
      "name": "MINTER_ROLE",
      "outputs": [
        {
          "internalType": "bytes32",
          "name": "",
          "type": "bytes32"
        }
      ],
      "stateMutability": "view",
      "type": "function"
    },
    {
      "inputs": [],
      "name": "TARGET_CHAIN_HASH",
      "outputs": [
        {
          "internalType": "bytes32",
          "name": "",
          "type": "bytes32"
        }
      ],
      "stateMutability": "view",
      "type": "function"
    },
    {
      "inputs": [
        {
          "internalType": "address",
          "name": "to",
          "type": "address"
        },
        {
          "internalType": "uint256",
          "name": "tokenId",
          "type": "uint256"
        }
      ],
      "name": "approve",
      "outputs": [],
      "stateMutability": "nonpayable",
      "type": "function"
    },
    {
      "inputs": [
        {
          "internalType": "address",
          "name": "owner",
          "type": "address"
        }
      ],
      "name": "balanceOf",
      "outputs": [
        {
          "internalType": "uint256",
          "name": "",
          "type": "uint256"
        }
      ],
      "stateMutability": "view",
      "type": "function"
    },
    {
      "inputs": [
        {
          "internalType": "uint256",
          "name": "tokenId",
          "type": "uint256"
        }
      ],
      "name": "burn",
      "outputs": [],
      "stateMutability": "nonpayable",
      "type": "function"
    },
    {
      "inputs": [
        {
          "internalType": "uint256",
          "name": "tokenId",
          "type": "uint256"
        }
      ],
      "name": "getApproved",
      "outputs": [
        {
          "internalType": "address",
          "name": "",
          "type": "address"
        }
      ],
      "stateMutability": "view",
      "type": "function"
    },
    {
      "inputs": [
        {
          "internalType": "bytes32",
          "name": "role",
          "type": "bytes32"
        }
      ],
      "name": "getRoleAdmin",
      "outputs": [
        {
          "internalType": "bytes32",
          "name": "",
          "type": "bytes32"
        }
      ],
      "stateMutability": "view",
      "type": "function"
    },
    {
      "inputs": [
        {
          "internalType": "bytes32",
          "name": "role",
          "type": "bytes32"
        },
        {
          "internalType": "uint256",
          "name": "index",
          "type": "uint256"
        }
      ],
      "name": "getRoleMember",
      "outputs": [
        {
          "internalType": "address",
          "name": "",
          "type": "address"
        }
      ],
      "stateMutability": "view",
      "type": "function"
    },
    {
      "inputs": [
        {
          "internalType": "bytes32",
          "name": "role",
          "type": "bytes32"
        }
      ],
      "name": "getRoleMemberCount",
      "outputs": [
        {
          "internalType": "uint256",
          "name": "",
          "type": "uint256"
        }
      ],
      "stateMutability": "view",
      "type": "function"
    },
    {
      "inputs": [
        {
          "internalType": "bytes32",
          "name": "role",
          "type": "bytes32"
        },
        {
          "internalType": "address",
          "name": "account",
          "type": "address"
        }
      ],
      "name": "grantRole",
      "outputs": [],
      "stateMutability": "nonpayable",
      "type": "function"
    },
    {
      "inputs": [
        {
          "internalType": "bytes32",
          "name": "role",
          "type": "bytes32"
        },
        {
          "internalType": "address",
          "name": "account",
          "type": "address"
        }
      ],
      "name": "hasRole",
      "outputs": [
        {
          "internalType": "bool",
          "name": "",
          "type": "bool"
        }
      ],
      "stateMutability": "view",
      "type": "function"
    },
    {
      "inputs": [
        {
          "internalType": "address",
          "name": "owner",
          "type": "address"
        },
        {
          "internalType": "address",
          "name": "operator",
          "type": "address"
        }
      ],
      "name": "isApprovedForAll",
      "outputs": [
        {
          "internalType": "bool",
          "name": "",
          "type": "bool"
        }
      ],
      "stateMutability": "view",
      "type": "function"
    },
    {
      "inputs": [
        {
          "components": [
            {
              "internalType": "address",
              "name": "to",
              "type": "address"
            },
            {
              "internalType": "address",
              "name": "originToken",
              "type": "address"
            },
            {
              "internalType": "address",
              "name": "targetToken",
              "type": "address"
            },
            {
              "internalType": "bool",
              "name": "bringBack",
              "type": "bool"
            }
          ],
          "internalType": "struct Types.MintRequest",
          "name": "data",
          "type": "tuple"
        }
      ],
      "name": "mint",
      "outputs": [],
      "stateMutability": "nonpayable",
      "type": "function"
    },
    {
      "inputs": [],
      "name": "name",
      "outputs": [
        {
          "internalType": "string",
          "name": "",
          "type": "string"
        }
      ],
      "stateMutability": "view",
      "type": "function"
    },
    {
      "inputs": [
        {
          "internalType": "uint256",
          "name": "tokenId",
          "type": "uint256"
        }
      ],
      "name": "ownerOf",
      "outputs": [
        {
          "internalType": "address",
          "name": "",
          "type": "address"
        }
      ],
      "stateMutability": "view",
      "type": "function"
    },
    {
      "inputs": [
        {
          "internalType": "bytes32",
          "name": "role",
          "type": "bytes32"
        },
        {
          "internalType": "address",
          "name": "account",
          "type": "address"
        }
      ],
      "name": "renounceRole",
      "outputs": [],
      "stateMutability": "nonpayable",
      "type": "function"
    },
    {
      "inputs": [
        {
          "internalType": "bytes32",
          "name": "role",
          "type": "bytes32"
        },
        {
          "internalType": "address",
          "name": "account",
          "type": "address"
        }
      ],
      "name": "revokeRole",
      "outputs": [],
      "stateMutability": "nonpayable",
      "type": "function"
    },
    {
      "inputs": [
        {
          "internalType": "address",
          "name": "from",
          "type": "address"
        },
        {
          "internalType": "address",
          "name": "to",
          "type": "address"
        },
        {
          "internalType": "uint256",
          "name": "tokenId",
          "type": "uint256"
        }
      ],
      "name": "safeTransferFrom",
      "outputs": [],
      "stateMutability": "nonpayable",
      "type": "function"
    },
    {
      "inputs": [
        {
          "internalType": "address",
          "name": "from",
          "type": "address"
        },
        {
          "internalType": "address",
          "name": "to",
          "type": "address"
        },
        {
          "internalType": "uint256",
          "name": "tokenId",
          "type": "uint256"
        },
        {
          "internalType": "bytes",
          "name": "data",
          "type": "bytes"
        }
      ],
      "name": "safeTransferFrom",
      "outputs": [],
      "stateMutability": "nonpayable",
      "type": "function"
    },
    {
      "inputs": [
        {
          "internalType": "address",
          "name": "operator",
          "type": "address"
        },
        {
          "internalType": "bool",
          "name": "approved",
          "type": "bool"
        }
      ],
      "name": "setApprovalForAll",
      "outputs": [],
      "stateMutability": "nonpayable",
      "type": "function"
    },
    {
      "inputs": [
        {
          "internalType": "bytes4",
          "name": "interfaceId",
          "type": "bytes4"
        }
      ],
      "name": "supportsInterface",
      "outputs": [
        {
          "internalType": "bool",
          "name": "",
          "type": "bool"
        }
      ],
      "stateMutability": "view",
      "type": "function"
    },
    {
      "inputs": [],
      "name": "symbol",
      "outputs": [
        {
          "internalType": "string",
          "name": "",
          "type": "string"
        }
      ],
      "stateMutability": "view",
      "type": "function"
    },
    {
      "inputs": [],
      "name": "tokenIdCounter",
      "outputs": [
        {
          "internalType": "uint256",
          "name": "_value",
          "type": "uint256"
        }
      ],
      "stateMutability": "view",
      "type": "function"
    },
    {
      "inputs": [
        {
          "internalType": "uint256",
          "name": "tokenId",
          "type": "uint256"
        }
      ],
      "name": "tokenURI",
      "outputs": [
        {
          "internalType": "string",
          "name": "",
          "type": "string"
        }
      ],
      "stateMutability": "view",
      "type": "function"
    },
    {
      "inputs": [
        {
          "internalType": "address",
          "name": "from",
          "type": "address"
        },
        {
          "internalType": "address",
          "name": "to",
          "type": "address"
        },
        {
          "internalType": "uint256",
          "name": "tokenId",
          "type": "uint256"
        }
      ],
      "name": "transferFrom",
      "outputs": [],
      "stateMutability": "nonpayable",
      "type": "function"
    }
  ],
  "transactionHash": "0xd08b5fa46700bfb0a1e26316810d704eb810be5af2d7a5e418b2fab62880d7b6",
  "args": [
    "0xbf67EC14Ed9a460e1a8dDE1D567e13C93dE43530",
    "staging-utter-unripe-menkar"
  ],
  "numDeployments": 15,
  "solcInputHash": "3a63df493cba4c64717842cc63983d11",
  "bytecode": "0x60a06040523480156200001157600080fd5b50604051620049e4380380620049e4833981810160405281019062000037919062000671565b6040518060400160405280600c81526020017f4f726967696e616c204e465400000000000000000000000000000000000000008152506040518060400160405280600481526020017f4f524947000000000000000000000000000000000000000000000000000000008152508160029081620000b4919062000922565b508060039081620000c6919062000922565b505050620000de6000801b33620001e360201b60201c565b620001107f9f2df0fed2c77648de5860a4cc508cd0818c85b8b8a1ab4ceeef8d981c8956a683620001e360201b60201c565b620001567f9f2df0fed2c77648de5860a4cc508cd0818c85b8b8a1ab4ceeef8d981c8956a673d2aaa00100000000000000000000000000000000620001e360201b60201c565b73d2aaa00100000000000000000000000000000000600a60006101000a81548173ffffffffffffffffffffffffffffffffffffffff021916908373ffffffffffffffffffffffffffffffffffffffff16021790555080604051602001620001be919062000a4b565b6040516020818303038152906040528051906020012060808181525050505062000a64565b620001f58282620001f960201b60201c565b5050565b6200021082826200024160201b620010051760201c565b6200023c81600160008581526020019081526020016000206200033260201b620010e51790919060201c565b505050565b6200025382826200036a60201b60201c565b6200032e57600160008084815260200190815260200160002060000160008373ffffffffffffffffffffffffffffffffffffffff1673ffffffffffffffffffffffffffffffffffffffff16815260200190815260200160002060006101000a81548160ff021916908315150217905550620002d3620003d460201b60201c565b73ffffffffffffffffffffffffffffffffffffffff168173ffffffffffffffffffffffffffffffffffffffff16837f2f8788117e7eff1d82e926ec794901d17c78024a50270940304540a733656f0d60405160405180910390a45b5050565b600062000362836000018373ffffffffffffffffffffffffffffffffffffffff1660001b620003dc60201b60201c565b905092915050565b600080600084815260200190815260200160002060000160008373ffffffffffffffffffffffffffffffffffffffff1673ffffffffffffffffffffffffffffffffffffffff16815260200190815260200160002060009054906101000a900460ff16905092915050565b600033905090565b6000620003f083836200045660201b60201c565b6200044b57826000018290806001815401808255809150506001900390600052602060002001600090919091909150558260000180549050836001016000848152602001908152602001600020819055506001905062000450565b600090505b92915050565b600080836001016000848152602001908152602001600020541415905092915050565b6000604051905090565b600080fd5b600080fd5b600073ffffffffffffffffffffffffffffffffffffffff82169050919050565b6000620004ba826200048d565b9050919050565b620004cc81620004ad565b8114620004d857600080fd5b50565b600081519050620004ec81620004c1565b92915050565b600080fd5b600080fd5b6000601f19601f8301169050919050565b7f4e487b7100000000000000000000000000000000000000000000000000000000600052604160045260246000fd5b6200054782620004fc565b810181811067ffffffffffffffff821117156200056957620005686200050d565b5b80604052505050565b60006200057e62000479565b90506200058c82826200053c565b919050565b600067ffffffffffffffff821115620005af57620005ae6200050d565b5b620005ba82620004fc565b9050602081019050919050565b60005b83811015620005e7578082015181840152602081019050620005ca565b60008484015250505050565b60006200060a620006048462000591565b62000572565b905082815260208101848484011115620006295762000628620004f7565b5b62000636848285620005c7565b509392505050565b600082601f830112620006565762000655620004f2565b5b815162000668848260208601620005f3565b91505092915050565b600080604083850312156200068b576200068a62000483565b5b60006200069b85828601620004db565b925050602083015167ffffffffffffffff811115620006bf57620006be62000488565b5b620006cd858286016200063e565b9150509250929050565b600081519050919050565b7f4e487b7100000000000000000000000000000000000000000000000000000000600052602260045260246000fd5b600060028204905060018216806200072a57607f821691505b60208210810362000740576200073f620006e2565b5b50919050565b60008190508160005260206000209050919050565b60006020601f8301049050919050565b600082821b905092915050565b600060088302620007aa7fffffffffffffffffffffffffffffffffffffffffffffffffffffffffffffffff826200076b565b620007b686836200076b565b95508019841693508086168417925050509392505050565b6000819050919050565b6000819050919050565b600062000803620007fd620007f784620007ce565b620007d8565b620007ce565b9050919050565b6000819050919050565b6200081f83620007e2565b620008376200082e826200080a565b84845462000778565b825550505050565b600090565b6200084e6200083f565b6200085b81848462000814565b505050565b5b8181101562000883576200087760008262000844565b60018101905062000861565b5050565b601f821115620008d2576200089c8162000746565b620008a7846200075b565b81016020851015620008b7578190505b620008cf620008c6856200075b565b83018262000860565b50505b505050565b600082821c905092915050565b6000620008f760001984600802620008d7565b1980831691505092915050565b6000620009128383620008e4565b9150826002028217905092915050565b6200092d82620006d7565b67ffffffffffffffff8111156200094957620009486200050d565b5b62000955825462000711565b6200096282828562000887565b600060209050601f8311600181146200099a576000841562000985578287015190505b62000991858262000904565b86555062000a01565b601f198416620009aa8662000746565b60005b82811015620009d457848901518255600182019150602085019450602081019050620009ad565b86831015620009f45784890151620009f0601f891682620008e4565b8355505b6001600288020188555050505b505050505050565b600081905092915050565b600062000a2182620006d7565b62000a2d818562000a09565b935062000a3f818560208601620005c7565b80840191505092915050565b600062000a59828462000a14565b915081905092915050565b608051613f5d62000a8760003960008181610a1e0152610efb0152613f5d6000f3fe608060405234801561001057600080fd5b506004361061018e5760003560e01c80639010d07c116100de578063b88d4fde11610097578063d539139311610071578063d5391393146104b9578063d547741f146104d7578063e985e9c5146104f3578063f9d8cfe3146105235761018e565b8063b88d4fde1461043d578063c87b56dd14610459578063ca15c873146104895761018e565b80639010d07c1461036757806391d148541461039757806395d89b41146103c757806398bdf6f5146103e5578063a217fddf14610403578063a22cb465146104215761018e565b80632f2ff15d1161014b57806342966c681161012557806342966c68146102cd5780636352211e146102e957806370a08231146103195780638dead66a146103495761018e565b80632f2ff15d1461027957806336568abe1461029557806342842e0e146102b15761018e565b806301ffc9a71461019357806306fdde03146101c3578063081812fc146101e1578063095ea7b31461021157806323b872dd1461022d578063248a9ca314610249575b600080fd5b6101ad60048036038101906101a89190612b5c565b61053f565b6040516101ba9190612ba4565b60405180910390f35b6101cb610551565b6040516101d89190612c4f565b60405180910390f35b6101fb60048036038101906101f69190612ca7565b6105e3565b6040516102089190612d15565b60405180910390f35b61022b60048036038101906102269190612d5c565b610629565b005b61024760048036038101906102429190612d9c565b610740565b005b610263600480360381019061025e9190612e25565b6107a0565b6040516102709190612e61565b60405180910390f35b610293600480360381019061028e9190612e7c565b6107bf565b005b6102af60048036038101906102aa9190612e7c565b6107e0565b005b6102cb60048036038101906102c69190612d9c565b610863565b005b6102e760048036038101906102e29190612ca7565b610883565b005b61030360048036038101906102fe9190612ca7565b6108df565b6040516103109190612d15565b60405180910390f35b610333600480360381019061032e9190612ebc565b610965565b6040516103409190612ef8565b60405180910390f35b610351610a1c565b60405161035e9190612e61565b60405180910390f35b610381600480360381019061037c9190612f13565b610a40565b60405161038e9190612d15565b60405180910390f35b6103b160048036038101906103ac9190612e7c565b610a6f565b6040516103be9190612ba4565b60405180910390f35b6103cf610ad9565b6040516103dc9190612c4f565b60405180910390f35b6103ed610b6b565b6040516103fa9190612ef8565b60405180910390f35b61040b610b77565b6040516104189190612e61565b60405180910390f35b61043b60048036038101906104369190612f7f565b610b7e565b005b610457600480360381019061045291906130f4565b610b94565b005b610473600480360381019061046e9190612ca7565b610bf6565b6040516104809190612c4f565b60405180910390f35b6104a3600480360381019061049e9190612e25565b610d08565b6040516104b09190612ef8565b60405180910390f35b6104c1610d2c565b6040516104ce9190612e61565b60405180910390f35b6104f160048036038101906104ec9190612e7c565b610d50565b005b61050d60048036038101906105089190613177565b610d71565b60405161051a9190612ba4565b60405180910390f35b61053d60048036038101906105389190613234565b610e05565b005b600061054a82611115565b9050919050565b60606002805461056090613290565b80601f016020809104026020016040519081016040528092919081815260200182805461058c90613290565b80156105d95780601f106105ae576101008083540402835291602001916105d9565b820191906000526020600020905b8154815290600101906020018083116105bc57829003601f168201915b5050505050905090565b60006105ee826111f7565b6006600083815260200190815260200160002060009054906101000a900473ffffffffffffffffffffffffffffffffffffffff169050919050565b6000610634826108df565b90508073ffffffffffffffffffffffffffffffffffffffff168373ffffffffffffffffffffffffffffffffffffffff16036106a4576040517f08c379a000000000000000000000000000000000000000000000000000000000815260040161069b90613333565b60405180910390fd5b8073ffffffffffffffffffffffffffffffffffffffff166106c3611242565b73ffffffffffffffffffffffffffffffffffffffff1614806106f257506106f1816106ec611242565b610d71565b5b610731576040517f08c379a0000000000000000000000000000000000000000000000000000000008152600401610728906133c5565b60405180910390fd5b61073b838361124a565b505050565b61075161074b611242565b82611303565b610790576040517f08c379a000000000000000000000000000000000000000000000000000000000815260040161078790613457565b60405180910390fd5b61079b838383611398565b505050565b6000806000838152602001908152602001600020600101549050919050565b6107c8826107a0565b6107d181611691565b6107db83836116a5565b505050565b6107e8611242565b73ffffffffffffffffffffffffffffffffffffffff168173ffffffffffffffffffffffffffffffffffffffff1614610855576040517f08c379a000000000000000000000000000000000000000000000000000000000815260040161084c906134e9565b60405180910390fd5b61085f82826116d9565b5050565b61087e83838360405180602001604052806000815250610b94565b505050565b61089461088e611242565b82611303565b6108d3576040517f08c379a00000000000000000000000000000000000000000000000000000000081526004016108ca9061357b565b60405180910390fd5b6108dc8161170d565b50565b6000806108eb83611760565b9050600073ffffffffffffffffffffffffffffffffffffffff168173ffffffffffffffffffffffffffffffffffffffff160361095c576040517f08c379a0000000000000000000000000000000000000000000000000000000008152600401610953906135e7565b60405180910390fd5b80915050919050565b60008073ffffffffffffffffffffffffffffffffffffffff168273ffffffffffffffffffffffffffffffffffffffff16036109d5576040517f08c379a00000000000000000000000000000000000000000000000000000000081526004016109cc90613679565b60405180910390fd5b600560008373ffffffffffffffffffffffffffffffffffffffff1673ffffffffffffffffffffffffffffffffffffffff168152602001908152602001600020549050919050565b7f000000000000000000000000000000000000000000000000000000000000000081565b6000610a67826001600086815260200190815260200160002061179d90919063ffffffff16565b905092915050565b600080600084815260200190815260200160002060000160008373ffffffffffffffffffffffffffffffffffffffff1673ffffffffffffffffffffffffffffffffffffffff16815260200190815260200160002060009054906101000a900460ff16905092915050565b606060038054610ae890613290565b80601f0160208091040260200160405190810160405280929190818152602001828054610b1490613290565b8015610b615780601f10610b3657610100808354040283529160200191610b61565b820191906000526020600020905b815481529060010190602001808311610b4457829003601f168201915b5050505050905090565b60098060000154905081565b6000801b81565b610b90610b89611242565b83836117b7565b5050565b610ba5610b9f611242565b83611303565b610be4576040517f08c379a0000000000000000000000000000000000000000000000000000000008152600401610bdb90613457565b60405180910390fd5b610bf084848484611923565b50505050565b6060610c01826111f7565b6000600860008481526020019081526020016000208054610c2190613290565b80601f0160208091040260200160405190810160405280929190818152602001828054610c4d90613290565b8015610c9a5780601f10610c6f57610100808354040283529160200191610c9a565b820191906000526020600020905b815481529060010190602001808311610c7d57829003601f168201915b505050505090506000610cab61197f565b90506000815103610cc0578192505050610d03565b600082511115610cf5578082604051602001610cdd9291906136d5565b60405160208183030381529060405292505050610d03565b610cfe84611996565b925050505b919050565b6000610d25600160008481526020019081526020016000206119fe565b9050919050565b7f9f2df0fed2c77648de5860a4cc508cd0818c85b8b8a1ab4ceeef8d981c8956a681565b610d59826107a0565b610d6281611691565b610d6c83836116d9565b505050565b6000600760008473ffffffffffffffffffffffffffffffffffffffff1673ffffffffffffffffffffffffffffffffffffffff16815260200190815260200160002060008373ffffffffffffffffffffffffffffffffffffffff1673ffffffffffffffffffffffffffffffffffffffff16815260200190815260200160002060009054906101000a900460ff16905092915050565b3373ffffffffffffffffffffffffffffffffffffffff167feb8cc801817c4755a9e7e694e51f8114da5dc922fdafe1d3ff7b3cf611c26f4d60405160405180910390a2610e727f9f2df0fed2c77648de5860a4cc508cd0818c85b8b8a1ab4ceeef8d981c8956a633610a6f565b610eb1576040517f08c379a0000000000000000000000000000000000000000000000000000000008152600401610ea890613745565b60405180910390fd5b806060015115610fe057600a60009054906101000a900473ffffffffffffffffffffffffffffffffffffffff1673ffffffffffffffffffffffffffffffffffffffff1663944892027f000000000000000000000000000000000000000000000000000000000000000083604001516040518060600160405280866000015173ffffffffffffffffffffffffffffffffffffffff168152602001610f546009611a13565b815260200160405180602001604052806000815250815250604051602001610f7c919061381d565b6040516020818303038152906040526040518463ffffffff1660e01b8152600401610fa993929190613894565b600060405180830381600087803b158015610fc357600080fd5b505af1158015610fd7573d6000803e3d6000fd5b50505050610ff8565b610ff78160000151610ff26009611a13565b611a21565b5b6110026009611a3f565b50565b61100f8282610a6f565b6110e157600160008084815260200190815260200160002060000160008373ffffffffffffffffffffffffffffffffffffffff1673ffffffffffffffffffffffffffffffffffffffff16815260200190815260200160002060006101000a81548160ff021916908315150217905550611086611242565b73ffffffffffffffffffffffffffffffffffffffff168173ffffffffffffffffffffffffffffffffffffffff16837f2f8788117e7eff1d82e926ec794901d17c78024a50270940304540a733656f0d60405160405180910390a45b5050565b600061110d836000018373ffffffffffffffffffffffffffffffffffffffff1660001b611a55565b905092915050565b60007f80ac58cd000000000000000000000000000000000000000000000000000000007bffffffffffffffffffffffffffffffffffffffffffffffffffffffff1916827bffffffffffffffffffffffffffffffffffffffffffffffffffffffff191614806111e057507f5b5e139f000000000000000000000000000000000000000000000000000000007bffffffffffffffffffffffffffffffffffffffffffffffffffffffff1916827bffffffffffffffffffffffffffffffffffffffffffffffffffffffff1916145b806111f057506111ef82611ac5565b5b9050919050565b61120081611b3f565b61123f576040517f08c379a0000000000000000000000000000000000000000000000000000000008152600401611236906135e7565b60405180910390fd5b50565b600033905090565b816006600083815260200190815260200160002060006101000a81548173ffffffffffffffffffffffffffffffffffffffff021916908373ffffffffffffffffffffffffffffffffffffffff160217905550808273ffffffffffffffffffffffffffffffffffffffff166112bd836108df565b73ffffffffffffffffffffffffffffffffffffffff167f8c5be1e5ebec7d5bd14f71427d1e84f3dd0314c0f7b2291e5b200ac8c7c3b92560405160405180910390a45050565b60008061130f836108df565b90508073ffffffffffffffffffffffffffffffffffffffff168473ffffffffffffffffffffffffffffffffffffffff16148061135157506113508185610d71565b5b8061138f57508373ffffffffffffffffffffffffffffffffffffffff16611377846105e3565b73ffffffffffffffffffffffffffffffffffffffff16145b91505092915050565b8273ffffffffffffffffffffffffffffffffffffffff166113b8826108df565b73ffffffffffffffffffffffffffffffffffffffff161461140e576040517f08c379a000000000000000000000000000000000000000000000000000000000815260040161140590613944565b60405180910390fd5b600073ffffffffffffffffffffffffffffffffffffffff168273ffffffffffffffffffffffffffffffffffffffff160361147d576040517f08c379a0000000000000000000000000000000000000000000000000000000008152600401611474906139d6565b60405180910390fd5b61148a8383836001611b80565b8273ffffffffffffffffffffffffffffffffffffffff166114aa826108df565b73ffffffffffffffffffffffffffffffffffffffff1614611500576040517f08c379a00000000000000000000000000000000000000000000000000000000081526004016114f790613944565b60405180910390fd5b6006600082815260200190815260200160002060006101000a81549073ffffffffffffffffffffffffffffffffffffffff02191690556001600560008573ffffffffffffffffffffffffffffffffffffffff1673ffffffffffffffffffffffffffffffffffffffff168152602001908152602001600020600082825403925050819055506001600560008473ffffffffffffffffffffffffffffffffffffffff1673ffffffffffffffffffffffffffffffffffffffff16815260200190815260200160002060008282540192505081905550816004600083815260200190815260200160002060006101000a81548173ffffffffffffffffffffffffffffffffffffffff021916908373ffffffffffffffffffffffffffffffffffffffff160217905550808273ffffffffffffffffffffffffffffffffffffffff168473ffffffffffffffffffffffffffffffffffffffff167fddf252ad1be2c89b69c2b068fc378daa952ba7f163c4a11628f55a4df523b3ef60405160405180910390a461168c8383836001611ca6565b505050565b6116a28161169d611242565b611cac565b50565b6116af8282611005565b6116d481600160008581526020019081526020016000206110e590919063ffffffff16565b505050565b6116e38282611d31565b6117088160016000858152602001908152602001600020611e1290919063ffffffff16565b505050565b61171681611e42565b600060086000838152602001908152602001600020805461173690613290565b90501461175d5760086000828152602001908152602001600020600061175c9190612a93565b5b50565b60006004600083815260200190815260200160002060009054906101000a900473ffffffffffffffffffffffffffffffffffffffff169050919050565b60006117ac8360000183611f90565b60001c905092915050565b8173ffffffffffffffffffffffffffffffffffffffff168373ffffffffffffffffffffffffffffffffffffffff1603611825576040517f08c379a000000000000000000000000000000000000000000000000000000000815260040161181c90613a42565b60405180910390fd5b80600760008573ffffffffffffffffffffffffffffffffffffffff1673ffffffffffffffffffffffffffffffffffffffff16815260200190815260200160002060008473ffffffffffffffffffffffffffffffffffffffff1673ffffffffffffffffffffffffffffffffffffffff16815260200190815260200160002060006101000a81548160ff0219169083151502179055508173ffffffffffffffffffffffffffffffffffffffff168373ffffffffffffffffffffffffffffffffffffffff167f17307eab39ab6107e8899845ad3d59bd9653f200f220920489ca2b5937696c31836040516119169190612ba4565b60405180910390a3505050565b61192e848484611398565b61193a84848484611fbb565b611979576040517f08c379a000000000000000000000000000000000000000000000000000000000815260040161197090613ad4565b60405180910390fd5b50505050565b606060405180602001604052806000815250905090565b60606119a1826111f7565b60006119ab61197f565b905060008151116119cb57604051806020016040528060008152506119f6565b806119d584612142565b6040516020016119e69291906136d5565b6040516020818303038152906040525b915050919050565b6000611a0c82600001612210565b9050919050565b600081600001549050919050565b611a3b828260405180602001604052806000815250612221565b5050565b6001816000016000828254019250508190555050565b6000611a61838361227c565b611aba578260000182908060018154018082558091505060019003906000526020600020016000909190919091505582600001805490508360010160008481526020019081526020016000208190555060019050611abf565b600090505b92915050565b60007f5a05180f000000000000000000000000000000000000000000000000000000007bffffffffffffffffffffffffffffffffffffffffffffffffffffffff1916827bffffffffffffffffffffffffffffffffffffffffffffffffffffffff19161480611b385750611b378261229f565b5b9050919050565b60008073ffffffffffffffffffffffffffffffffffffffff16611b6183611760565b73ffffffffffffffffffffffffffffffffffffffff1614159050919050565b6001811115611ca057600073ffffffffffffffffffffffffffffffffffffffff168473ffffffffffffffffffffffffffffffffffffffff1614611c145780600560008673ffffffffffffffffffffffffffffffffffffffff1673ffffffffffffffffffffffffffffffffffffffff1681526020019081526020016000206000828254611c0c9190613b23565b925050819055505b600073ffffffffffffffffffffffffffffffffffffffff168373ffffffffffffffffffffffffffffffffffffffff1614611c9f5780600560008573ffffffffffffffffffffffffffffffffffffffff1673ffffffffffffffffffffffffffffffffffffffff1681526020019081526020016000206000828254611c979190613b57565b925050819055505b5b50505050565b50505050565b611cb68282610a6f565b611d2d57611cc381612319565b611cd18360001c6020612346565b604051602001611ce2929190613c23565b6040516020818303038152906040526040517f08c379a0000000000000000000000000000000000000000000000000000000008152600401611d249190612c4f565b60405180910390fd5b5050565b611d3b8282610a6f565b15611e0e57600080600084815260200190815260200160002060000160008373ffffffffffffffffffffffffffffffffffffffff1673ffffffffffffffffffffffffffffffffffffffff16815260200190815260200160002060006101000a81548160ff021916908315150217905550611db3611242565b73ffffffffffffffffffffffffffffffffffffffff168173ffffffffffffffffffffffffffffffffffffffff16837ff6391f5c32d9c69d2a47ea670b442974b53935d1edc7fd64eb21e047a839171b60405160405180910390a45b5050565b6000611e3a836000018373ffffffffffffffffffffffffffffffffffffffff1660001b612582565b905092915050565b6000611e4d826108df565b9050611e5d816000846001611b80565b611e66826108df565b90506006600083815260200190815260200160002060006101000a81549073ffffffffffffffffffffffffffffffffffffffff02191690556001600560008373ffffffffffffffffffffffffffffffffffffffff1673ffffffffffffffffffffffffffffffffffffffff168152602001908152602001600020600082825403925050819055506004600083815260200190815260200160002060006101000a81549073ffffffffffffffffffffffffffffffffffffffff021916905581600073ffffffffffffffffffffffffffffffffffffffff168273ffffffffffffffffffffffffffffffffffffffff167fddf252ad1be2c89b69c2b068fc378daa952ba7f163c4a11628f55a4df523b3ef60405160405180910390a4611f8c816000846001611ca6565b5050565b6000826000018281548110611fa857611fa7613c5d565b5b9060005260206000200154905092915050565b6000611fdc8473ffffffffffffffffffffffffffffffffffffffff16612696565b15612135578373ffffffffffffffffffffffffffffffffffffffff1663150b7a02612005611242565b8786866040518563ffffffff1660e01b81526004016120279493929190613c8c565b6020604051808303816000875af192505050801561206357506040513d601f19601f820116820180604052508101906120609190613ced565b60015b6120e5573d8060008114612093576040519150601f19603f3d011682016040523d82523d6000602084013e612098565b606091505b5060008151036120dd576040517f08c379a00000000000000000000000000000000000000000000000000000000081526004016120d490613ad4565b60405180910390fd5b805181602001fd5b63150b7a0260e01b7bffffffffffffffffffffffffffffffffffffffffffffffffffffffff1916817bffffffffffffffffffffffffffffffffffffffffffffffffffffffff19161491505061213a565b600190505b949350505050565b606060006001612151846126b9565b01905060008167ffffffffffffffff8111156121705761216f612fc9565b5b6040519080825280601f01601f1916602001820160405280156121a25781602001600182028036833780820191505090505b509050600082602001820190505b600115612205578080600190039150507f3031323334353637383961626364656600000000000000000000000000000000600a86061a8153600a85816121f9576121f8613d1a565b5b049450600085036121b0575b819350505050919050565b600081600001805490509050919050565b61222b838361280c565b6122386000848484611fbb565b612277576040517f08c379a000000000000000000000000000000000000000000000000000000000815260040161226e90613ad4565b60405180910390fd5b505050565b600080836001016000848152602001908152602001600020541415905092915050565b60007f7965db0b000000000000000000000000000000000000000000000000000000007bffffffffffffffffffffffffffffffffffffffffffffffffffffffff1916827bffffffffffffffffffffffffffffffffffffffffffffffffffffffff19161480612312575061231182612a29565b5b9050919050565b606061233f8273ffffffffffffffffffffffffffffffffffffffff16601460ff16612346565b9050919050565b6060600060028360026123599190613d49565b6123639190613b57565b67ffffffffffffffff81111561237c5761237b612fc9565b5b6040519080825280601f01601f1916602001820160405280156123ae5781602001600182028036833780820191505090505b5090507f3000000000000000000000000000000000000000000000000000000000000000816000815181106123e6576123e5613c5d565b5b60200101907effffffffffffffffffffffffffffffffffffffffffffffffffffffffffffff1916908160001a9053507f78000000000000000000000000000000000000000000000000000000000000008160018151811061244a57612449613c5d565b5b60200101907effffffffffffffffffffffffffffffffffffffffffffffffffffffffffffff1916908160001a9053506000600184600261248a9190613d49565b6124949190613b57565b90505b6001811115612534577f3031323334353637383961626364656600000000000000000000000000000000600f8616601081106124d6576124d5613c5d565b5b1a60f81b8282815181106124ed576124ec613c5d565b5b60200101907effffffffffffffffffffffffffffffffffffffffffffffffffffffffffffff1916908160001a905350600485901c94508061252d90613d8b565b9050612497565b5060008414612578576040517f08c379a000000000000000000000000000000000000000000000000000000000815260040161256f90613e00565b60405180910390fd5b8091505092915050565b6000808360010160008481526020019081526020016000205490506000811461268a5760006001826125b49190613b23565b90506000600186600001805490506125cc9190613b23565b905081811461263b5760008660000182815481106125ed576125ec613c5d565b5b906000526020600020015490508087600001848154811061261157612610613c5d565b5b90600052602060002001819055508387600101600083815260200190815260200160002081905550505b8560000180548061264f5761264e613e20565b5b600190038181906000526020600020016000905590558560010160008681526020019081526020016000206000905560019350505050612690565b60009150505b92915050565b6000808273ffffffffffffffffffffffffffffffffffffffff163b119050919050565b600080600090507a184f03e93ff9f4daa797ed6e38ed64bf6a1f0100000000000000008310612717577a184f03e93ff9f4daa797ed6e38ed64bf6a1f010000000000000000838161270d5761270c613d1a565b5b0492506040810190505b6d04ee2d6d415b85acef81000000008310612754576d04ee2d6d415b85acef8100000000838161274a57612749613d1a565b5b0492506020810190505b662386f26fc10000831061278357662386f26fc10000838161277957612778613d1a565b5b0492506010810190505b6305f5e10083106127ac576305f5e10083816127a2576127a1613d1a565b5b0492506008810190505b61271083106127d15761271083816127c7576127c6613d1a565b5b0492506004810190505b606483106127f457606483816127ea576127e9613d1a565b5b0492506002810190505b600a8310612803576001810190505b80915050919050565b600073ffffffffffffffffffffffffffffffffffffffff168273ffffffffffffffffffffffffffffffffffffffff160361287b576040517f08c379a000000000000000000000000000000000000000000000000000000000815260040161287290613e9b565b60405180910390fd5b61288481611b3f565b156128c4576040517f08c379a00000000000000000000000000000000000000000000000000000000081526004016128bb90613f07565b60405180910390fd5b6128d2600083836001611b80565b6128db81611b3f565b1561291b576040517f08c379a000000000000000000000000000000000000000000000000000000000815260040161291290613f07565b60405180910390fd5b6001600560008473ffffffffffffffffffffffffffffffffffffffff1673ffffffffffffffffffffffffffffffffffffffff16815260200190815260200160002060008282540192505081905550816004600083815260200190815260200160002060006101000a81548173ffffffffffffffffffffffffffffffffffffffff021916908373ffffffffffffffffffffffffffffffffffffffff160217905550808273ffffffffffffffffffffffffffffffffffffffff16600073ffffffffffffffffffffffffffffffffffffffff167fddf252ad1be2c89b69c2b068fc378daa952ba7f163c4a11628f55a4df523b3ef60405160405180910390a4612a25600083836001611ca6565b5050565b60007f01ffc9a7000000000000000000000000000000000000000000000000000000007bffffffffffffffffffffffffffffffffffffffffffffffffffffffff1916827bffffffffffffffffffffffffffffffffffffffffffffffffffffffff1916149050919050565b508054612a9f90613290565b6000825580601f10612ab15750612ad0565b601f016020900490600052602060002090810190612acf9190612ad3565b5b50565b5b80821115612aec576000816000905550600101612ad4565b5090565b6000604051905090565b600080fd5b600080fd5b60007fffffffff0000000000000000000000000000000000000000000000000000000082169050919050565b612b3981612b04565b8114612b4457600080fd5b50565b600081359050612b5681612b30565b92915050565b600060208284031215612b7257612b71612afa565b5b6000612b8084828501612b47565b91505092915050565b60008115159050919050565b612b9e81612b89565b82525050565b6000602082019050612bb96000830184612b95565b92915050565b600081519050919050565b600082825260208201905092915050565b60005b83811015612bf9578082015181840152602081019050612bde565b60008484015250505050565b6000601f19601f8301169050919050565b6000612c2182612bbf565b612c2b8185612bca565b9350612c3b818560208601612bdb565b612c4481612c05565b840191505092915050565b60006020820190508181036000830152612c698184612c16565b905092915050565b6000819050919050565b612c8481612c71565b8114612c8f57600080fd5b50565b600081359050612ca181612c7b565b92915050565b600060208284031215612cbd57612cbc612afa565b5b6000612ccb84828501612c92565b91505092915050565b600073ffffffffffffffffffffffffffffffffffffffff82169050919050565b6000612cff82612cd4565b9050919050565b612d0f81612cf4565b82525050565b6000602082019050612d2a6000830184612d06565b92915050565b612d3981612cf4565b8114612d4457600080fd5b50565b600081359050612d5681612d30565b92915050565b60008060408385031215612d7357612d72612afa565b5b6000612d8185828601612d47565b9250506020612d9285828601612c92565b9150509250929050565b600080600060608486031215612db557612db4612afa565b5b6000612dc386828701612d47565b9350506020612dd486828701612d47565b9250506040612de586828701612c92565b9150509250925092565b6000819050919050565b612e0281612def565b8114612e0d57600080fd5b50565b600081359050612e1f81612df9565b92915050565b600060208284031215612e3b57612e3a612afa565b5b6000612e4984828501612e10565b91505092915050565b612e5b81612def565b82525050565b6000602082019050612e766000830184612e52565b92915050565b60008060408385031215612e9357612e92612afa565b5b6000612ea185828601612e10565b9250506020612eb285828601612d47565b9150509250929050565b600060208284031215612ed257612ed1612afa565b5b6000612ee084828501612d47565b91505092915050565b612ef281612c71565b82525050565b6000602082019050612f0d6000830184612ee9565b92915050565b60008060408385031215612f2a57612f29612afa565b5b6000612f3885828601612e10565b9250506020612f4985828601612c92565b9150509250929050565b612f5c81612b89565b8114612f6757600080fd5b50565b600081359050612f7981612f53565b92915050565b60008060408385031215612f9657612f95612afa565b5b6000612fa485828601612d47565b9250506020612fb585828601612f6a565b9150509250929050565b600080fd5b600080fd5b7f4e487b7100000000000000000000000000000000000000000000000000000000600052604160045260246000fd5b61300182612c05565b810181811067ffffffffffffffff821117156130205761301f612fc9565b5b80604052505050565b6000613033612af0565b905061303f8282612ff8565b919050565b600067ffffffffffffffff82111561305f5761305e612fc9565b5b61306882612c05565b9050602081019050919050565b82818337600083830152505050565b600061309761309284613044565b613029565b9050828152602081018484840111156130b3576130b2612fc4565b5b6130be848285613075565b509392505050565b600082601f8301126130db576130da612fbf565b5b81356130eb848260208601613084565b91505092915050565b6000806000806080858703121561310e5761310d612afa565b5b600061311c87828801612d47565b945050602061312d87828801612d47565b935050604061313e87828801612c92565b925050606085013567ffffffffffffffff81111561315f5761315e612aff565b5b61316b878288016130c6565b91505092959194509250565b6000806040838503121561318e5761318d612afa565b5b600061319c85828601612d47565b92505060206131ad85828601612d47565b9150509250929050565b600080fd5b6000608082840312156131d2576131d16131b7565b5b6131dc6080613029565b905060006131ec84828501612d47565b600083015250602061320084828501612d47565b602083015250604061321484828501612d47565b604083015250606061322884828501612f6a565b60608301525092915050565b60006080828403121561324a57613249612afa565b5b6000613258848285016131bc565b91505092915050565b7f4e487b7100000000000000000000000000000000000000000000000000000000600052602260045260246000fd5b600060028204905060018216806132a857607f821691505b6020821081036132bb576132ba613261565b5b50919050565b7f4552433732313a20617070726f76616c20746f2063757272656e74206f776e6560008201527f7200000000000000000000000000000000000000000000000000000000000000602082015250565b600061331d602183612bca565b9150613328826132c1565b604082019050919050565b6000602082019050818103600083015261334c81613310565b9050919050565b7f4552433732313a20617070726f76652063616c6c6572206973206e6f7420746f60008201527f6b656e206f776e6572206f7220617070726f76656420666f7220616c6c000000602082015250565b60006133af603d83612bca565b91506133ba82613353565b604082019050919050565b600060208201905081810360008301526133de816133a2565b9050919050565b7f4552433732313a2063616c6c6572206973206e6f7420746f6b656e206f776e6560008201527f72206f7220617070726f76656400000000000000000000000000000000000000602082015250565b6000613441602d83612bca565b915061344c826133e5565b604082019050919050565b6000602082019050818103600083015261347081613434565b9050919050565b7f416363657373436f6e74726f6c3a2063616e206f6e6c792072656e6f756e636560008201527f20726f6c657320666f722073656c660000000000000000000000000000000000602082015250565b60006134d3602f83612bca565b91506134de82613477565b604082019050919050565b60006020820190508181036000830152613502816134c6565b9050919050565b7f4552433732314275726e61626c653a2063616c6c6572206973206e6f74206f7760008201527f6e6572206e6f7220617070726f76656400000000000000000000000000000000602082015250565b6000613565603083612bca565b915061357082613509565b604082019050919050565b6000602082019050818103600083015261359481613558565b9050919050565b7f4552433732313a20696e76616c696420746f6b656e2049440000000000000000600082015250565b60006135d1601883612bca565b91506135dc8261359b565b602082019050919050565b60006020820190508181036000830152613600816135c4565b9050919050565b7f4552433732313a2061646472657373207a65726f206973206e6f74206120766160008201527f6c6964206f776e65720000000000000000000000000000000000000000000000602082015250565b6000613663602983612bca565b915061366e82613607565b604082019050919050565b6000602082019050818103600083015261369281613656565b9050919050565b600081905092915050565b60006136af82612bbf565b6136b98185613699565b93506136c9818560208601612bdb565b80840191505092915050565b60006136e182856136a4565b91506136ed82846136a4565b91508190509392505050565b7f53656e646572206973206e6f742061204d696e74657200000000000000000000600082015250565b600061372f601683612bca565b915061373a826136f9565b602082019050919050565b6000602082019050818103600083015261375e81613722565b9050919050565b61376e81612cf4565b82525050565b61377d81612c71565b82525050565b600082825260208201905092915050565b600061379f82612bbf565b6137a98185613783565b93506137b9818560208601612bdb565b6137c281612c05565b840191505092915050565b60006060830160008301516137e56000860182613765565b5060208301516137f86020860182613774565b50604083015184820360408601526138108282613794565b9150508091505092915050565b6000602082019050818103600083015261383781846137cd565b905092915050565b600081519050919050565b600082825260208201905092915050565b60006138668261383f565b613870818561384a565b9350613880818560208601612bdb565b61388981612c05565b840191505092915050565b60006060820190506138a96000830186612e52565b6138b66020830185612d06565b81810360408301526138c8818461385b565b9050949350505050565b7f4552433732313a207472616e736665722066726f6d20696e636f72726563742060008201527f6f776e6572000000000000000000000000000000000000000000000000000000602082015250565b600061392e602583612bca565b9150613939826138d2565b604082019050919050565b6000602082019050818103600083015261395d81613921565b9050919050565b7f4552433732313a207472616e7366657220746f20746865207a65726f2061646460008201527f7265737300000000000000000000000000000000000000000000000000000000602082015250565b60006139c0602483612bca565b91506139cb82613964565b604082019050919050565b600060208201905081810360008301526139ef816139b3565b9050919050565b7f4552433732313a20617070726f766520746f2063616c6c657200000000000000600082015250565b6000613a2c601983612bca565b9150613a37826139f6565b602082019050919050565b60006020820190508181036000830152613a5b81613a1f565b9050919050565b7f4552433732313a207472616e7366657220746f206e6f6e20455243373231526560008201527f63656976657220696d706c656d656e7465720000000000000000000000000000602082015250565b6000613abe603283612bca565b9150613ac982613a62565b604082019050919050565b60006020820190508181036000830152613aed81613ab1565b9050919050565b7f4e487b7100000000000000000000000000000000000000000000000000000000600052601160045260246000fd5b6000613b2e82612c71565b9150613b3983612c71565b9250828203905081811115613b5157613b50613af4565b5b92915050565b6000613b6282612c71565b9150613b6d83612c71565b9250828201905080821115613b8557613b84613af4565b5b92915050565b7f416363657373436f6e74726f6c3a206163636f756e7420000000000000000000600082015250565b6000613bc1601783613699565b9150613bcc82613b8b565b601782019050919050565b7f206973206d697373696e6720726f6c6520000000000000000000000000000000600082015250565b6000613c0d601183613699565b9150613c1882613bd7565b601182019050919050565b6000613c2e82613bb4565b9150613c3a82856136a4565b9150613c4582613c00565b9150613c5182846136a4565b91508190509392505050565b7f4e487b7100000000000000000000000000000000000000000000000000000000600052603260045260246000fd5b6000608082019050613ca16000830187612d06565b613cae6020830186612d06565b613cbb6040830185612ee9565b8181036060830152613ccd818461385b565b905095945050505050565b600081519050613ce781612b30565b92915050565b600060208284031215613d0357613d02612afa565b5b6000613d1184828501613cd8565b91505092915050565b7f4e487b7100000000000000000000000000000000000000000000000000000000600052601260045260246000fd5b6000613d5482612c71565b9150613d5f83612c71565b9250828202613d6d81612c71565b91508282048414831517613d8457613d83613af4565b5b5092915050565b6000613d9682612c71565b915060008203613da957613da8613af4565b5b600182039050919050565b7f537472696e67733a20686578206c656e67746820696e73756666696369656e74600082015250565b6000613dea602083612bca565b9150613df582613db4565b602082019050919050565b60006020820190508181036000830152613e1981613ddd565b9050919050565b7f4e487b7100000000000000000000000000000000000000000000000000000000600052603160045260246000fd5b7f4552433732313a206d696e7420746f20746865207a65726f2061646472657373600082015250565b6000613e85602083612bca565b9150613e9082613e4f565b602082019050919050565b60006020820190508181036000830152613eb481613e78565b9050919050565b7f4552433732313a20746f6b656e20616c7265616479206d696e74656400000000600082015250565b6000613ef1601c83612bca565b9150613efc82613ebb565b602082019050919050565b60006020820190508181036000830152613f2081613ee4565b905091905056fea2646970667358221220d781223f1c0d39c184d971909d28e8c615caef2fff2b61b87e7054261c453cbd64736f6c63430008110033",
  "devdoc": {
    "kind": "dev",
    "methods": {
      "approve(address,uint256)": {
        "details": "See {IERC721-approve}."
      },
      "balanceOf(address)": {
        "details": "See {IERC721-balanceOf}."
      },
      "getApproved(uint256)": {
        "details": "See {IERC721-getApproved}."
      },
      "getRoleAdmin(bytes32)": {
        "details": "Returns the admin role that controls `role`. See {grantRole} and {revokeRole}. To change a role's admin, use {_setRoleAdmin}."
      },
      "getRoleMember(bytes32,uint256)": {
        "details": "Returns one of the accounts that have `role`. `index` must be a value between 0 and {getRoleMemberCount}, non-inclusive. Role bearers are not sorted in any particular way, and their ordering may change at any point. WARNING: When using {getRoleMember} and {getRoleMemberCount}, make sure you perform all queries on the same block. See the following https://forum.openzeppelin.com/t/iterating-over-elements-on-enumerableset-in-openzeppelin-contracts/2296[forum post] for more information."
      },
      "getRoleMemberCount(bytes32)": {
        "details": "Returns the number of accounts that have `role`. Can be used together with {getRoleMember} to enumerate all bearers of a role."
      },
      "grantRole(bytes32,address)": {
        "details": "Grants `role` to `account`. If `account` had not been already granted `role`, emits a {RoleGranted} event. Requirements: - the caller must have ``role``'s admin role. May emit a {RoleGranted} event."
      },
      "hasRole(bytes32,address)": {
        "details": "Returns `true` if `account` has been granted `role`."
      },
      "isApprovedForAll(address,address)": {
        "details": "See {IERC721-isApprovedForAll}."
      },
      "mint((address,address,address,bool))": {
        "details": "Can be sent back over when called from either side",
        "params": {
          "data": "MintRequest"
        }
      },
      "name()": {
        "details": "See {IERC721Metadata-name}."
      },
      "ownerOf(uint256)": {
        "details": "See {IERC721-ownerOf}."
      },
      "renounceRole(bytes32,address)": {
        "details": "Revokes `role` from the calling account. Roles are often managed via {grantRole} and {revokeRole}: this function's purpose is to provide a mechanism for accounts to lose their privileges if they are compromised (such as when a trusted device is misplaced). If the calling account had been revoked `role`, emits a {RoleRevoked} event. Requirements: - the caller must be `account`. May emit a {RoleRevoked} event."
      },
      "revokeRole(bytes32,address)": {
        "details": "Revokes `role` from `account`. If `account` had been granted `role`, emits a {RoleRevoked} event. Requirements: - the caller must have ``role``'s admin role. May emit a {RoleRevoked} event."
      },
      "safeTransferFrom(address,address,uint256)": {
        "details": "See {IERC721-safeTransferFrom}."
      },
      "safeTransferFrom(address,address,uint256,bytes)": {
        "details": "See {IERC721-safeTransferFrom}."
      },
      "setApprovalForAll(address,bool)": {
        "details": "See {IERC721-setApprovalForAll}."
      },
      "symbol()": {
        "details": "See {IERC721Metadata-symbol}."
      },
      "tokenURI(uint256)": {
        "details": "See {IERC721Metadata-tokenURI}."
      },
      "transferFrom(address,address,uint256)": {
        "details": "See {IERC721-transferFrom}."
      }
    },
    "version": 1
  },
  "userdoc": {
    "kind": "user",
    "methods": {
      "mint((address,address,address,bool))": {
        "notice": "Allows for minting from IMA or User"
      }
    },
    "version": 1
  },
  "storageLayout": {
    "storage": [
      {
        "astId": 24,
        "contract": "contracts/DualChannel721.sol:DualChannel721",
        "label": "_roles",
        "offset": 0,
        "slot": "0",
        "type": "t_mapping(t_bytes32,t_struct(RoleData)19_storage)"
      },
      {
        "astId": 334,
        "contract": "contracts/DualChannel721.sol:DualChannel721",
        "label": "_roleMembers",
        "offset": 0,
        "slot": "1",
        "type": "t_mapping(t_bytes32,t_struct(AddressSet)3597_storage)"
      },
      {
        "astId": 564,
        "contract": "contracts/DualChannel721.sol:DualChannel721",
        "label": "_name",
        "offset": 0,
        "slot": "2",
        "type": "t_string_storage"
      },
      {
        "astId": 566,
        "contract": "contracts/DualChannel721.sol:DualChannel721",
        "label": "_symbol",
        "offset": 0,
        "slot": "3",
        "type": "t_string_storage"
      },
      {
        "astId": 570,
        "contract": "contracts/DualChannel721.sol:DualChannel721",
        "label": "_owners",
        "offset": 0,
        "slot": "4",
        "type": "t_mapping(t_uint256,t_address)"
      },
      {
        "astId": 574,
        "contract": "contracts/DualChannel721.sol:DualChannel721",
        "label": "_balances",
        "offset": 0,
        "slot": "5",
        "type": "t_mapping(t_address,t_uint256)"
      },
      {
        "astId": 578,
        "contract": "contracts/DualChannel721.sol:DualChannel721",
        "label": "_tokenApprovals",
        "offset": 0,
        "slot": "6",
        "type": "t_mapping(t_uint256,t_address)"
      },
      {
        "astId": 584,
        "contract": "contracts/DualChannel721.sol:DualChannel721",
        "label": "_operatorApprovals",
        "offset": 0,
        "slot": "7",
        "type": "t_mapping(t_address,t_mapping(t_address,t_bool))"
      },
      {
        "astId": 1630,
        "contract": "contracts/DualChannel721.sol:DualChannel721",
        "label": "_tokenURIs",
        "offset": 0,
        "slot": "8",
        "type": "t_mapping(t_uint256,t_string_storage)"
      },
      {
        "astId": 4130,
        "contract": "contracts/DualChannel721.sol:DualChannel721",
        "label": "tokenIdCounter",
        "offset": 0,
        "slot": "9",
        "type": "t_struct(Counter)2127_storage"
      },
      {
        "astId": 4133,
        "contract": "contracts/DualChannel721.sol:DualChannel721",
        "label": "proxy",
        "offset": 0,
        "slot": "10",
        "type": "t_contract(IMessageProxyForSchain)4083"
      }
    ],
    "types": {
      "t_address": {
        "encoding": "inplace",
        "label": "address",
        "numberOfBytes": "20"
      },
      "t_array(t_bytes32)dyn_storage": {
        "base": "t_bytes32",
        "encoding": "dynamic_array",
        "label": "bytes32[]",
        "numberOfBytes": "32"
      },
      "t_bool": {
        "encoding": "inplace",
        "label": "bool",
        "numberOfBytes": "1"
      },
      "t_bytes32": {
        "encoding": "inplace",
        "label": "bytes32",
        "numberOfBytes": "32"
      },
      "t_contract(IMessageProxyForSchain)4083": {
        "encoding": "inplace",
        "label": "contract IMessageProxyForSchain",
        "numberOfBytes": "20"
      },
      "t_mapping(t_address,t_bool)": {
        "encoding": "mapping",
        "key": "t_address",
        "label": "mapping(address => bool)",
        "numberOfBytes": "32",
        "value": "t_bool"
      },
      "t_mapping(t_address,t_mapping(t_address,t_bool))": {
        "encoding": "mapping",
        "key": "t_address",
        "label": "mapping(address => mapping(address => bool))",
        "numberOfBytes": "32",
        "value": "t_mapping(t_address,t_bool)"
      },
      "t_mapping(t_address,t_uint256)": {
        "encoding": "mapping",
        "key": "t_address",
        "label": "mapping(address => uint256)",
        "numberOfBytes": "32",
        "value": "t_uint256"
      },
      "t_mapping(t_bytes32,t_struct(AddressSet)3597_storage)": {
        "encoding": "mapping",
        "key": "t_bytes32",
        "label": "mapping(bytes32 => struct EnumerableSet.AddressSet)",
        "numberOfBytes": "32",
        "value": "t_struct(AddressSet)3597_storage"
      },
      "t_mapping(t_bytes32,t_struct(RoleData)19_storage)": {
        "encoding": "mapping",
        "key": "t_bytes32",
        "label": "mapping(bytes32 => struct AccessControl.RoleData)",
        "numberOfBytes": "32",
        "value": "t_struct(RoleData)19_storage"
      },
      "t_mapping(t_bytes32,t_uint256)": {
        "encoding": "mapping",
        "key": "t_bytes32",
        "label": "mapping(bytes32 => uint256)",
        "numberOfBytes": "32",
        "value": "t_uint256"
      },
      "t_mapping(t_uint256,t_address)": {
        "encoding": "mapping",
        "key": "t_uint256",
        "label": "mapping(uint256 => address)",
        "numberOfBytes": "32",
        "value": "t_address"
      },
      "t_mapping(t_uint256,t_string_storage)": {
        "encoding": "mapping",
        "key": "t_uint256",
        "label": "mapping(uint256 => string)",
        "numberOfBytes": "32",
        "value": "t_string_storage"
      },
      "t_string_storage": {
        "encoding": "bytes",
        "label": "string",
        "numberOfBytes": "32"
      },
      "t_struct(AddressSet)3597_storage": {
        "encoding": "inplace",
        "label": "struct EnumerableSet.AddressSet",
        "members": [
          {
            "astId": 3596,
            "contract": "contracts/DualChannel721.sol:DualChannel721",
            "label": "_inner",
            "offset": 0,
            "slot": "0",
            "type": "t_struct(Set)3282_storage"
          }
        ],
        "numberOfBytes": "64"
      },
      "t_struct(Counter)2127_storage": {
        "encoding": "inplace",
        "label": "struct Counters.Counter",
        "members": [
          {
            "astId": 2126,
            "contract": "contracts/DualChannel721.sol:DualChannel721",
            "label": "_value",
            "offset": 0,
            "slot": "0",
            "type": "t_uint256"
          }
        ],
        "numberOfBytes": "32"
      },
      "t_struct(RoleData)19_storage": {
        "encoding": "inplace",
        "label": "struct AccessControl.RoleData",
        "members": [
          {
            "astId": 16,
            "contract": "contracts/DualChannel721.sol:DualChannel721",
            "label": "members",
            "offset": 0,
            "slot": "0",
            "type": "t_mapping(t_address,t_bool)"
          },
          {
            "astId": 18,
            "contract": "contracts/DualChannel721.sol:DualChannel721",
            "label": "adminRole",
            "offset": 0,
            "slot": "1",
            "type": "t_bytes32"
          }
        ],
        "numberOfBytes": "64"
      },
      "t_struct(Set)3282_storage": {
        "encoding": "inplace",
        "label": "struct EnumerableSet.Set",
        "members": [
          {
            "astId": 3277,
            "contract": "contracts/DualChannel721.sol:DualChannel721",
            "label": "_values",
            "offset": 0,
            "slot": "0",
            "type": "t_array(t_bytes32)dyn_storage"
          },
          {
            "astId": 3281,
            "contract": "contracts/DualChannel721.sol:DualChannel721",
            "label": "_indexes",
            "offset": 0,
            "slot": "1",
            "type": "t_mapping(t_bytes32,t_uint256)"
          }
        ],
        "numberOfBytes": "64"
      },
      "t_uint256": {
        "encoding": "inplace",
        "label": "uint256",
        "numberOfBytes": "32"
      }
    }
  }
}