{
  "address": "0xbf67EC14Ed9a460e1a8dDE1D567e13C93dE43530",
  "abi": [
    {
      "inputs": [],
      "stateMutability": "nonpayable",
      "type": "constructor"
    },
    {
      "anonymous": false,
      "inputs": [
        {
          "indexed": true,
          "internalType": "bytes32",
          "name": "chainHash",
          "type": "bytes32"
        },
        {
          "indexed": true,
          "internalType": "address",
          "name": "token",
          "type": "address"
        },
        {
          "indexed": true,
          "internalType": "bool",
          "name": "isERC721",
          "type": "bool"
        }
      ],
      "name": "AddClone",
      "type": "event"
    },
    {
      "anonymous": false,
      "inputs": [
        {
          "indexed": true,
          "internalType": "bytes32",
          "name": "fromChainHash",
          "type": "bytes32"
        },
        {
          "indexed": true,
          "internalType": "address",
          "name": "sender",
          "type": "address"
        },
        {
          "components": [
            {
              "internalType": "address",
              "name": "to",
              "type": "address"
            },
            {
              "internalType": "address",
              "name": "originToken",
              "type": "address"
            },
            {
              "internalType": "address",
              "name": "targetToken",
              "type": "address"
            },
            {
              "internalType": "bool",
              "name": "bringBack",
              "type": "bool"
            }
          ],
          "indexed": false,
          "internalType": "struct Types.MintRequest",
          "name": "request",
          "type": "tuple"
        }
      ],
      "name": "MintRequest",
      "type": "event"
    },
    {
      "anonymous": false,
      "inputs": [
        {
          "indexed": true,
          "internalType": "bytes32",
          "name": "fromChainHash",
          "type": "bytes32"
        },
        {
          "indexed": true,
          "internalType": "address",
          "name": "sender",
          "type": "address"
        }
      ],
      "name": "RecievedMintRequest",
      "type": "event"
    },
    {
      "anonymous": false,
      "inputs": [
        {
          "indexed": true,
          "internalType": "bytes32",
          "name": "role",
          "type": "bytes32"
        },
        {
          "indexed": true,
          "internalType": "bytes32",
          "name": "previousAdminRole",
          "type": "bytes32"
        },
        {
          "indexed": true,
          "internalType": "bytes32",
          "name": "newAdminRole",
          "type": "bytes32"
        }
      ],
      "name": "RoleAdminChanged",
      "type": "event"
    },
    {
      "anonymous": false,
      "inputs": [
        {
          "indexed": true,
          "internalType": "bytes32",
          "name": "role",
          "type": "bytes32"
        },
        {
          "indexed": true,
          "internalType": "address",
          "name": "account",
          "type": "address"
        },
        {
          "indexed": true,
          "internalType": "address",
          "name": "sender",
          "type": "address"
        }
      ],
      "name": "RoleGranted",
      "type": "event"
    },
    {
      "anonymous": false,
      "inputs": [
        {
          "indexed": true,
          "internalType": "bytes32",
          "name": "role",
          "type": "bytes32"
        },
        {
          "indexed": true,
          "internalType": "address",
          "name": "account",
          "type": "address"
        },
        {
          "indexed": true,
          "internalType": "address",
          "name": "sender",
          "type": "address"
        }
      ],
      "name": "RoleRevoked",
      "type": "event"
    },
    {
      "inputs": [],
      "name": "DEFAULT_ADMIN_ROLE",
      "outputs": [
        {
          "internalType": "bytes32",
          "name": "",
          "type": "bytes32"
        }
      ],
      "stateMutability": "view",
      "type": "function"
    },
    {
      "inputs": [],
      "name": "IMA_ROLE",
      "outputs": [
        {
          "internalType": "bytes32",
          "name": "",
          "type": "bytes32"
        }
      ],
      "stateMutability": "view",
      "type": "function"
    },
    {
      "inputs": [],
      "name": "OWNER_ROLE",
      "outputs": [
        {
          "internalType": "bytes32",
          "name": "",
          "type": "bytes32"
        }
      ],
      "stateMutability": "view",
      "type": "function"
    },
    {
      "inputs": [
        {
          "internalType": "string",
          "name": "chainName",
          "type": "string"
        },
        {
          "internalType": "contract IDualChannel721",
          "name": "token",
          "type": "address"
        }
      ],
      "name": "add721Clone",
      "outputs": [],
      "stateMutability": "nonpayable",
      "type": "function"
    },
    {
      "inputs": [
        {
          "internalType": "bytes32",
          "name": "role",
          "type": "bytes32"
        }
      ],
      "name": "getRoleAdmin",
      "outputs": [
        {
          "internalType": "bytes32",
          "name": "",
          "type": "bytes32"
        }
      ],
      "stateMutability": "view",
      "type": "function"
    },
    {
      "inputs": [
        {
          "internalType": "bytes32",
          "name": "role",
          "type": "bytes32"
        },
        {
          "internalType": "uint256",
          "name": "index",
          "type": "uint256"
        }
      ],
      "name": "getRoleMember",
      "outputs": [
        {
          "internalType": "address",
          "name": "",
          "type": "address"
        }
      ],
      "stateMutability": "view",
      "type": "function"
    },
    {
      "inputs": [
        {
          "internalType": "bytes32",
          "name": "role",
          "type": "bytes32"
        }
      ],
      "name": "getRoleMemberCount",
      "outputs": [
        {
          "internalType": "uint256",
          "name": "",
          "type": "uint256"
        }
      ],
      "stateMutability": "view",
      "type": "function"
    },
    {
      "inputs": [
        {
          "internalType": "bytes32",
          "name": "role",
          "type": "bytes32"
        },
        {
          "internalType": "address",
          "name": "account",
          "type": "address"
        }
      ],
      "name": "grantRole",
      "outputs": [],
      "stateMutability": "nonpayable",
      "type": "function"
    },
    {
      "inputs": [
        {
          "internalType": "bytes32",
          "name": "role",
          "type": "bytes32"
        },
        {
          "internalType": "address",
          "name": "account",
          "type": "address"
        }
      ],
      "name": "hasRole",
      "outputs": [
        {
          "internalType": "bool",
          "name": "",
          "type": "bool"
        }
      ],
      "stateMutability": "view",
      "type": "function"
    },
    {
      "inputs": [
        {
          "internalType": "bytes32",
          "name": "",
          "type": "bytes32"
        },
        {
          "internalType": "contract IDualChannel721",
          "name": "",
          "type": "address"
        }
      ],
      "name": "is721Clone",
      "outputs": [
        {
          "internalType": "bool",
          "name": "",
          "type": "bool"
        }
      ],
      "stateMutability": "view",
      "type": "function"
    },
    {
      "inputs": [
        {
          "internalType": "bytes32",
          "name": "schainHash",
          "type": "bytes32"
        },
        {
          "internalType": "address",
          "name": "sender",
          "type": "address"
        },
        {
          "internalType": "bytes",
          "name": "data",
          "type": "bytes"
        }
      ],
      "name": "postMessage",
      "outputs": [],
      "stateMutability": "nonpayable",
      "type": "function"
    },
    {
      "inputs": [
        {
          "internalType": "bytes32",
          "name": "role",
          "type": "bytes32"
        },
        {
          "internalType": "address",
          "name": "account",
          "type": "address"
        }
      ],
      "name": "renounceRole",
      "outputs": [],
      "stateMutability": "nonpayable",
      "type": "function"
    },
    {
      "inputs": [
        {
          "internalType": "bytes32",
          "name": "role",
          "type": "bytes32"
        },
        {
          "internalType": "address",
          "name": "account",
          "type": "address"
        }
      ],
      "name": "revokeRole",
      "outputs": [],
      "stateMutability": "nonpayable",
      "type": "function"
    },
    {
      "inputs": [
        {
          "internalType": "bytes4",
          "name": "interfaceId",
          "type": "bytes4"
        }
      ],
      "name": "supportsInterface",
      "outputs": [
        {
          "internalType": "bool",
          "name": "",
          "type": "bool"
        }
      ],
      "stateMutability": "view",
      "type": "function"
    }
  ],
  "transactionHash": "0xe385361b2bd9820d1535544f9147ce2a77df73eb7dbff2980e6667fb14cdd57a",
  "args": [],
  "numDeployments": 19,
  "solcInputHash": "57bdf918648de7fe69b8738d58a5bd9e",
  "bytecode": "0x60806040523480156200001157600080fd5b50620000276000801b33620000a560201b60201c565b620000597fb19546dff01e856fb3f010c267a7b1c60363cf8a4664e21cc89c26224620214e33620000a560201b60201c565b6200009f7f18f7915ceb1a15dd0c3170ef6d30ba89e0bcb07f4fb55858579385663709107e73d2aaa00100000000000000000000000000000000620000a560201b60201c565b62000325565b620000bc8282620000ed60201b620007a51760201c565b620000e88160016000858152602001908152602001600020620001de60201b620008851790919060201c565b505050565b620000ff82826200021660201b60201c565b620001da57600160008084815260200190815260200160002060000160008373ffffffffffffffffffffffffffffffffffffffff1673ffffffffffffffffffffffffffffffffffffffff16815260200190815260200160002060006101000a81548160ff0219169083151502179055506200017f6200028060201b60201c565b73ffffffffffffffffffffffffffffffffffffffff168173ffffffffffffffffffffffffffffffffffffffff16837f2f8788117e7eff1d82e926ec794901d17c78024a50270940304540a733656f0d60405160405180910390a45b5050565b60006200020e836000018373ffffffffffffffffffffffffffffffffffffffff1660001b6200028860201b60201c565b905092915050565b600080600084815260200190815260200160002060000160008373ffffffffffffffffffffffffffffffffffffffff1673ffffffffffffffffffffffffffffffffffffffff16815260200190815260200160002060009054906101000a900460ff16905092915050565b600033905090565b60006200029c83836200030260201b60201c565b620002f7578260000182908060018154018082558091505060019003906000526020600020016000909190919091505582600001805490508360010160008481526020019081526020016000208190555060019050620002fc565b600090505b92915050565b600080836001016000848152602001908152602001600020541415905092915050565b611c1080620003356000396000f3fe608060405234801561001057600080fd5b50600436106100ea5760003560e01c806391d148541161008c578063d547741f11610066578063d547741f14610281578063dcc9e39f1461029d578063e58378bb146102b9578063f81299b9146102d7576100ea565b806391d1485414610203578063a217fddf14610233578063ca15c87314610251576100ea565b80632f2ff15d116100c85780632f2ff15d1461017f57806336568abe1461019b578063884cee5a146101b75780639010d07c146101d3576100ea565b806301ffc9a7146100ef578063248a9ca31461011f5780632925847e1461014f575b600080fd5b6101096004803603810190610104919061109a565b6102f5565b60405161011691906110e2565b60405180910390f35b61013960048036038101906101349190611133565b61036f565b604051610146919061116f565b60405180910390f35b610169600480360381019061016491906111fa565b61038e565b60405161017691906110e2565b60405180910390f35b61019960048036038101906101949190611266565b6103bd565b005b6101b560048036038101906101b09190611266565b6103de565b005b6101d160048036038101906101cc919061130b565b610461565b005b6101ed60048036038101906101e891906113b5565b61052e565b6040516101fa9190611404565b60405180910390f35b61021d60048036038101906102189190611266565b61055d565b60405161022a91906110e2565b60405180910390f35b61023b6105c7565b604051610248919061116f565b60405180910390f35b61026b60048036038101906102669190611133565b6105ce565b604051610278919061142e565b60405180910390f35b61029b60048036038101906102969190611266565b6105f2565b005b6102b760048036038101906102b2919061158a565b610613565b005b6102c161075d565b6040516102ce919061116f565b60405180910390f35b6102df610781565b6040516102ec919061116f565b60405180910390f35b60007f5a05180f000000000000000000000000000000000000000000000000000000007bffffffffffffffffffffffffffffffffffffffffffffffffffffffff1916827bffffffffffffffffffffffffffffffffffffffffffffffffffffffff191614806103685750610367826108b5565b5b9050919050565b6000806000838152602001908152602001600020600101549050919050565b60026020528160005260406000206020528060005260406000206000915091509054906101000a900460ff1681565b6103c68261036f565b6103cf8161092f565b6103d98383610943565b505050565b6103e6610977565b73ffffffffffffffffffffffffffffffffffffffff168173ffffffffffffffffffffffffffffffffffffffff1614610453576040517f08c379a000000000000000000000000000000000000000000000000000000000815260040161044a90611669565b60405180910390fd5b61045d828261097f565b5050565b8273ffffffffffffffffffffffffffffffffffffffff16847f91e658c9d141cdca74b4198e2808e79d89b60065fb31f4e360c29991f0bfdc7960405160405180910390a3600082828101906104b69190611732565b9050806020015173ffffffffffffffffffffffffffffffffffffffff1663f9d8cfe3826040518263ffffffff1660e01b81526004016104f591906117d2565b600060405180830381600087803b15801561050f57600080fd5b505af1158015610523573d6000803e3d6000fd5b505050505050505050565b600061055582600160008681526020019081526020016000206109b390919063ffffffff16565b905092915050565b600080600084815260200190815260200160002060000160008373ffffffffffffffffffffffffffffffffffffffff1673ffffffffffffffffffffffffffffffffffffffff16815260200190815260200160002060009054906101000a900460ff16905092915050565b6000801b81565b60006105eb600160008481526020019081526020016000206109cd565b9050919050565b6105fb8261036f565b6106048161092f565b61060e838361097f565b505050565b61063d7fb19546dff01e856fb3f010c267a7b1c60363cf8a4664e21cc89c26224620214e3361055d565b61067c576040517f08c379a000000000000000000000000000000000000000000000000000000000815260040161067390611839565b60405180910390fd5b60008260405160200161068f91906118ca565b60405160208183030381529060405280519060200120905060016002600083815260200190815260200160002060008473ffffffffffffffffffffffffffffffffffffffff1673ffffffffffffffffffffffffffffffffffffffff16815260200190815260200160002060006101000a81548160ff021916908315150217905550600115158273ffffffffffffffffffffffffffffffffffffffff16827fb714a1131f0c43c3c9f5ac25d468370f4be4da9fa4c83fdd8abccdbc5b52eeed60405160405180910390a4505050565b7fb19546dff01e856fb3f010c267a7b1c60363cf8a4664e21cc89c26224620214e81565b7f18f7915ceb1a15dd0c3170ef6d30ba89e0bcb07f4fb55858579385663709107e81565b6107af828261055d565b61088157600160008084815260200190815260200160002060000160008373ffffffffffffffffffffffffffffffffffffffff1673ffffffffffffffffffffffffffffffffffffffff16815260200190815260200160002060006101000a81548160ff021916908315150217905550610826610977565b73ffffffffffffffffffffffffffffffffffffffff168173ffffffffffffffffffffffffffffffffffffffff16837f2f8788117e7eff1d82e926ec794901d17c78024a50270940304540a733656f0d60405160405180910390a45b5050565b60006108ad836000018373ffffffffffffffffffffffffffffffffffffffff1660001b6109e2565b905092915050565b60007f7965db0b000000000000000000000000000000000000000000000000000000007bffffffffffffffffffffffffffffffffffffffffffffffffffffffff1916827bffffffffffffffffffffffffffffffffffffffffffffffffffffffff19161480610928575061092782610a52565b5b9050919050565b6109408161093b610977565b610abc565b50565b61094d82826107a5565b610972816001600085815260200190815260200160002061088590919063ffffffff16565b505050565b600033905090565b6109898282610b41565b6109ae8160016000858152602001908152602001600020610c2290919063ffffffff16565b505050565b60006109c28360000183610c52565b60001c905092915050565b60006109db82600001610c7d565b9050919050565b60006109ee8383610c8e565b610a47578260000182908060018154018082558091505060019003906000526020600020016000909190919091505582600001805490508360010160008481526020019081526020016000208190555060019050610a4c565b600090505b92915050565b60007f01ffc9a7000000000000000000000000000000000000000000000000000000007bffffffffffffffffffffffffffffffffffffffffffffffffffffffff1916827bffffffffffffffffffffffffffffffffffffffffffffffffffffffff1916149050919050565b610ac6828261055d565b610b3d57610ad381610cb1565b610ae18360001c6020610cde565b604051602001610af2929190611979565b6040516020818303038152906040526040517f08c379a0000000000000000000000000000000000000000000000000000000008152600401610b3491906119ec565b60405180910390fd5b5050565b610b4b828261055d565b15610c1e57600080600084815260200190815260200160002060000160008373ffffffffffffffffffffffffffffffffffffffff1673ffffffffffffffffffffffffffffffffffffffff16815260200190815260200160002060006101000a81548160ff021916908315150217905550610bc3610977565b73ffffffffffffffffffffffffffffffffffffffff168173ffffffffffffffffffffffffffffffffffffffff16837ff6391f5c32d9c69d2a47ea670b442974b53935d1edc7fd64eb21e047a839171b60405160405180910390a45b5050565b6000610c4a836000018373ffffffffffffffffffffffffffffffffffffffff1660001b610f1a565b905092915050565b6000826000018281548110610c6a57610c69611a0e565b5b9060005260206000200154905092915050565b600081600001805490509050919050565b600080836001016000848152602001908152602001600020541415905092915050565b6060610cd78273ffffffffffffffffffffffffffffffffffffffff16601460ff16610cde565b9050919050565b606060006002836002610cf19190611a6c565b610cfb9190611aae565b67ffffffffffffffff811115610d1457610d1361145f565b5b6040519080825280601f01601f191660200182016040528015610d465781602001600182028036833780820191505090505b5090507f300000000000000000000000000000000000000000000000000000000000000081600081518110610d7e57610d7d611a0e565b5b60200101907effffffffffffffffffffffffffffffffffffffffffffffffffffffffffffff1916908160001a9053507f780000000000000000000000000000000000000000000000000000000000000081600181518110610de257610de1611a0e565b5b60200101907effffffffffffffffffffffffffffffffffffffffffffffffffffffffffffff1916908160001a90535060006001846002610e229190611a6c565b610e2c9190611aae565b90505b6001811115610ecc577f3031323334353637383961626364656600000000000000000000000000000000600f861660108110610e6e57610e6d611a0e565b5b1a60f81b828281518110610e8557610e84611a0e565b5b60200101907effffffffffffffffffffffffffffffffffffffffffffffffffffffffffffff1916908160001a905350600485901c945080610ec590611ae2565b9050610e2f565b5060008414610f10576040517f08c379a0000000000000000000000000000000000000000000000000000000008152600401610f0790611b57565b60405180910390fd5b8091505092915050565b60008083600101600084815260200190815260200160002054905060008114611022576000600182610f4c9190611b77565b9050600060018660000180549050610f649190611b77565b9050818114610fd3576000866000018281548110610f8557610f84611a0e565b5b9060005260206000200154905080876000018481548110610fa957610fa8611a0e565b5b90600052602060002001819055508387600101600083815260200190815260200160002081905550505b85600001805480610fe757610fe6611bab565b5b600190038181906000526020600020016000905590558560010160008681526020019081526020016000206000905560019350505050611028565b60009150505b92915050565b6000604051905090565b600080fd5b600080fd5b60007fffffffff0000000000000000000000000000000000000000000000000000000082169050919050565b61107781611042565b811461108257600080fd5b50565b6000813590506110948161106e565b92915050565b6000602082840312156110b0576110af611038565b5b60006110be84828501611085565b91505092915050565b60008115159050919050565b6110dc816110c7565b82525050565b60006020820190506110f760008301846110d3565b92915050565b6000819050919050565b611110816110fd565b811461111b57600080fd5b50565b60008135905061112d81611107565b92915050565b60006020828403121561114957611148611038565b5b60006111578482850161111e565b91505092915050565b611169816110fd565b82525050565b60006020820190506111846000830184611160565b92915050565b600073ffffffffffffffffffffffffffffffffffffffff82169050919050565b60006111b58261118a565b9050919050565b60006111c7826111aa565b9050919050565b6111d7816111bc565b81146111e257600080fd5b50565b6000813590506111f4816111ce565b92915050565b6000806040838503121561121157611210611038565b5b600061121f8582860161111e565b9250506020611230858286016111e5565b9150509250929050565b611243816111aa565b811461124e57600080fd5b50565b6000813590506112608161123a565b92915050565b6000806040838503121561127d5761127c611038565b5b600061128b8582860161111e565b925050602061129c85828601611251565b9150509250929050565b600080fd5b600080fd5b600080fd5b60008083601f8401126112cb576112ca6112a6565b5b8235905067ffffffffffffffff8111156112e8576112e76112ab565b5b602083019150836001820283011115611304576113036112b0565b5b9250929050565b6000806000806060858703121561132557611324611038565b5b60006113338782880161111e565b945050602061134487828801611251565b935050604085013567ffffffffffffffff8111156113655761136461103d565b5b611371878288016112b5565b925092505092959194509250565b6000819050919050565b6113928161137f565b811461139d57600080fd5b50565b6000813590506113af81611389565b92915050565b600080604083850312156113cc576113cb611038565b5b60006113da8582860161111e565b92505060206113eb858286016113a0565b9150509250929050565b6113fe816111aa565b82525050565b600060208201905061141960008301846113f5565b92915050565b6114288161137f565b82525050565b6000602082019050611443600083018461141f565b92915050565b600080fd5b6000601f19601f8301169050919050565b7f4e487b7100000000000000000000000000000000000000000000000000000000600052604160045260246000fd5b6114978261144e565b810181811067ffffffffffffffff821117156114b6576114b561145f565b5b80604052505050565b60006114c961102e565b90506114d5828261148e565b919050565b600067ffffffffffffffff8211156114f5576114f461145f565b5b6114fe8261144e565b9050602081019050919050565b82818337600083830152505050565b600061152d611528846114da565b6114bf565b90508281526020810184848401111561154957611548611449565b5b61155484828561150b565b509392505050565b600082601f830112611571576115706112a6565b5b813561158184826020860161151a565b91505092915050565b600080604083850312156115a1576115a0611038565b5b600083013567ffffffffffffffff8111156115bf576115be61103d565b5b6115cb8582860161155c565b92505060206115dc858286016111e5565b9150509250929050565b600082825260208201905092915050565b7f416363657373436f6e74726f6c3a2063616e206f6e6c792072656e6f756e636560008201527f20726f6c657320666f722073656c660000000000000000000000000000000000602082015250565b6000611653602f836115e6565b915061165e826115f7565b604082019050919050565b6000602082019050818103600083015261168281611646565b9050919050565b600080fd5b611697816110c7565b81146116a257600080fd5b50565b6000813590506116b48161168e565b92915050565b6000608082840312156116d0576116cf611689565b5b6116da60806114bf565b905060006116ea84828501611251565b60008301525060206116fe84828501611251565b602083015250604061171284828501611251565b6040830152506060611726848285016116a5565b60608301525092915050565b60006080828403121561174857611747611038565b5b6000611756848285016116ba565b91505092915050565b611768816111aa565b82525050565b611777816110c7565b82525050565b608082016000820151611793600085018261175f565b5060208201516117a6602085018261175f565b5060408201516117b9604085018261175f565b5060608201516117cc606085018261176e565b50505050565b60006080820190506117e7600083018461177d565b92915050565b7f4d697373696e67204f574e45525f524f4c450000000000000000000000000000600082015250565b60006118236012836115e6565b915061182e826117ed565b602082019050919050565b6000602082019050818103600083015261185281611816565b9050919050565b600081519050919050565b600081905092915050565b60005b8381101561188d578082015181840152602081019050611872565b60008484015250505050565b60006118a482611859565b6118ae8185611864565b93506118be81856020860161186f565b80840191505092915050565b60006118d68284611899565b915081905092915050565b7f416363657373436f6e74726f6c3a206163636f756e7420000000000000000000600082015250565b6000611917601783611864565b9150611922826118e1565b601782019050919050565b7f206973206d697373696e6720726f6c6520000000000000000000000000000000600082015250565b6000611963601183611864565b915061196e8261192d565b601182019050919050565b60006119848261190a565b91506119908285611899565b915061199b82611956565b91506119a78284611899565b91508190509392505050565b60006119be82611859565b6119c881856115e6565b93506119d881856020860161186f565b6119e18161144e565b840191505092915050565b60006020820190508181036000830152611a0681846119b3565b905092915050565b7f4e487b7100000000000000000000000000000000000000000000000000000000600052603260045260246000fd5b7f4e487b7100000000000000000000000000000000000000000000000000000000600052601160045260246000fd5b6000611a778261137f565b9150611a828361137f565b9250828202611a908161137f565b91508282048414831517611aa757611aa6611a3d565b5b5092915050565b6000611ab98261137f565b9150611ac48361137f565b9250828201905080821115611adc57611adb611a3d565b5b92915050565b6000611aed8261137f565b915060008203611b0057611aff611a3d565b5b600182039050919050565b7f537472696e67733a20686578206c656e67746820696e73756666696369656e74600082015250565b6000611b416020836115e6565b9150611b4c82611b0b565b602082019050919050565b60006020820190508181036000830152611b7081611b34565b9050919050565b6000611b828261137f565b9150611b8d8361137f565b9250828203905081811115611ba557611ba4611a3d565b5b92915050565b7f4e487b7100000000000000000000000000000000000000000000000000000000600052603160045260246000fdfea26469706673582212201beb12a585afaf8ed9ac3c5a46cd222f97f062fe42c763c277bcd17c49124fe364736f6c63430008110033",
  "devdoc": {
    "kind": "dev",
    "methods": {
      "getRoleAdmin(bytes32)": {
        "details": "Returns the admin role that controls `role`. See {grantRole} and {revokeRole}. To change a role's admin, use {_setRoleAdmin}."
      },
      "getRoleMember(bytes32,uint256)": {
        "details": "Returns one of the accounts that have `role`. `index` must be a value between 0 and {getRoleMemberCount}, non-inclusive. Role bearers are not sorted in any particular way, and their ordering may change at any point. WARNING: When using {getRoleMember} and {getRoleMemberCount}, make sure you perform all queries on the same block. See the following https://forum.openzeppelin.com/t/iterating-over-elements-on-enumerableset-in-openzeppelin-contracts/2296[forum post] for more information."
      },
      "getRoleMemberCount(bytes32)": {
        "details": "Returns the number of accounts that have `role`. Can be used together with {getRoleMember} to enumerate all bearers of a role."
      },
      "grantRole(bytes32,address)": {
        "details": "Grants `role` to `account`. If `account` had not been already granted `role`, emits a {RoleGranted} event. Requirements: - the caller must have ``role``'s admin role. May emit a {RoleGranted} event."
      },
      "hasRole(bytes32,address)": {
        "details": "Returns `true` if `account` has been granted `role`."
      },
      "renounceRole(bytes32,address)": {
        "details": "Revokes `role` from the calling account. Roles are often managed via {grantRole} and {revokeRole}: this function's purpose is to provide a mechanism for accounts to lose their privileges if they are compromised (such as when a trusted device is misplaced). If the calling account had been revoked `role`, emits a {RoleRevoked} event. Requirements: - the caller must be `account`. May emit a {RoleRevoked} event."
      },
      "revokeRole(bytes32,address)": {
        "details": "Revokes `role` from `account`. If `account` had been granted `role`, emits a {RoleRevoked} event. Requirements: - the caller must have ``role``'s admin role. May emit a {RoleRevoked} event."
      },
      "supportsInterface(bytes4)": {
        "details": "See {IERC165-supportsInterface}."
      }
    },
    "version": 1
  },
  "userdoc": {
    "kind": "user",
    "methods": {},
    "version": 1
  },
  "storageLayout": {
    "storage": [
      {
        "astId": 24,
        "contract": "contracts/NFTProxy.sol:NFTProxy",
        "label": "_roles",
        "offset": 0,
        "slot": "0",
        "type": "t_mapping(t_bytes32,t_struct(RoleData)19_storage)"
      },
      {
        "astId": 334,
        "contract": "contracts/NFTProxy.sol:NFTProxy",
        "label": "_roleMembers",
        "offset": 0,
        "slot": "1",
        "type": "t_mapping(t_bytes32,t_struct(AddressSet)3597_storage)"
      },
      {
        "astId": 4281,
        "contract": "contracts/NFTProxy.sol:NFTProxy",
        "label": "is721Clone",
        "offset": 0,
        "slot": "2",
        "type": "t_mapping(t_bytes32,t_mapping(t_contract(IDualChannel721)4416,t_bool))"
      }
    ],
    "types": {
      "t_address": {
        "encoding": "inplace",
        "label": "address",
        "numberOfBytes": "20"
      },
      "t_array(t_bytes32)dyn_storage": {
        "base": "t_bytes32",
        "encoding": "dynamic_array",
        "label": "bytes32[]",
        "numberOfBytes": "32"
      },
      "t_bool": {
        "encoding": "inplace",
        "label": "bool",
        "numberOfBytes": "1"
      },
      "t_bytes32": {
        "encoding": "inplace",
        "label": "bytes32",
        "numberOfBytes": "32"
      },
      "t_contract(IDualChannel721)4416": {
        "encoding": "inplace",
        "label": "contract IDualChannel721",
        "numberOfBytes": "20"
      },
      "t_mapping(t_address,t_bool)": {
        "encoding": "mapping",
        "key": "t_address",
        "label": "mapping(address => bool)",
        "numberOfBytes": "32",
        "value": "t_bool"
      },
      "t_mapping(t_bytes32,t_mapping(t_contract(IDualChannel721)4416,t_bool))": {
        "encoding": "mapping",
        "key": "t_bytes32",
        "label": "mapping(bytes32 => mapping(contract IDualChannel721 => bool))",
        "numberOfBytes": "32",
        "value": "t_mapping(t_contract(IDualChannel721)4416,t_bool)"
      },
      "t_mapping(t_bytes32,t_struct(AddressSet)3597_storage)": {
        "encoding": "mapping",
        "key": "t_bytes32",
        "label": "mapping(bytes32 => struct EnumerableSet.AddressSet)",
        "numberOfBytes": "32",
        "value": "t_struct(AddressSet)3597_storage"
      },
      "t_mapping(t_bytes32,t_struct(RoleData)19_storage)": {
        "encoding": "mapping",
        "key": "t_bytes32",
        "label": "mapping(bytes32 => struct AccessControl.RoleData)",
        "numberOfBytes": "32",
        "value": "t_struct(RoleData)19_storage"
      },
      "t_mapping(t_bytes32,t_uint256)": {
        "encoding": "mapping",
        "key": "t_bytes32",
        "label": "mapping(bytes32 => uint256)",
        "numberOfBytes": "32",
        "value": "t_uint256"
      },
      "t_mapping(t_contract(IDualChannel721)4416,t_bool)": {
        "encoding": "mapping",
        "key": "t_contract(IDualChannel721)4416",
        "label": "mapping(contract IDualChannel721 => bool)",
        "numberOfBytes": "32",
        "value": "t_bool"
      },
      "t_struct(AddressSet)3597_storage": {
        "encoding": "inplace",
        "label": "struct EnumerableSet.AddressSet",
        "members": [
          {
            "astId": 3596,
            "contract": "contracts/NFTProxy.sol:NFTProxy",
            "label": "_inner",
            "offset": 0,
            "slot": "0",
            "type": "t_struct(Set)3282_storage"
          }
        ],
        "numberOfBytes": "64"
      },
      "t_struct(RoleData)19_storage": {
        "encoding": "inplace",
        "label": "struct AccessControl.RoleData",
        "members": [
          {
            "astId": 16,
            "contract": "contracts/NFTProxy.sol:NFTProxy",
            "label": "members",
            "offset": 0,
            "slot": "0",
            "type": "t_mapping(t_address,t_bool)"
          },
          {
            "astId": 18,
            "contract": "contracts/NFTProxy.sol:NFTProxy",
            "label": "adminRole",
            "offset": 0,
            "slot": "1",
            "type": "t_bytes32"
          }
        ],
        "numberOfBytes": "64"
      },
      "t_struct(Set)3282_storage": {
        "encoding": "inplace",
        "label": "struct EnumerableSet.Set",
        "members": [
          {
            "astId": 3277,
            "contract": "contracts/NFTProxy.sol:NFTProxy",
            "label": "_values",
            "offset": 0,
            "slot": "0",
            "type": "t_array(t_bytes32)dyn_storage"
          },
          {
            "astId": 3281,
            "contract": "contracts/NFTProxy.sol:NFTProxy",
            "label": "_indexes",
            "offset": 0,
            "slot": "1",
            "type": "t_mapping(t_bytes32,t_uint256)"
          }
        ],
        "numberOfBytes": "64"
      },
      "t_uint256": {
        "encoding": "inplace",
        "label": "uint256",
        "numberOfBytes": "32"
      }
    }
  }
}