{
  "address": "0x65B4D3e91873a0Aa3B0E2e4a8796FBF9676F30D3",
  "abi": [
    {
      "inputs": [],
      "stateMutability": "nonpayable",
      "type": "constructor"
    },
    {
      "anonymous": false,
      "inputs": [
        {
          "indexed": true,
          "internalType": "bytes32",
          "name": "chainHash",
          "type": "bytes32"
        },
        {
          "indexed": true,
          "internalType": "address",
          "name": "token",
          "type": "address"
        },
        {
          "indexed": true,
          "internalType": "bool",
          "name": "isERC721",
          "type": "bool"
        }
      ],
      "name": "AddClone",
      "type": "event"
    },
    {
      "anonymous": false,
      "inputs": [
        {
          "indexed": true,
          "internalType": "bytes32",
          "name": "fromChainHash",
          "type": "bytes32"
        },
        {
          "indexed": true,
          "internalType": "address",
          "name": "sender",
          "type": "address"
        },
        {
          "components": [
            {
              "internalType": "address",
              "name": "to",
              "type": "address"
            },
            {
              "internalType": "address",
              "name": "originToken",
              "type": "address"
            },
            {
              "internalType": "address",
              "name": "targetToken",
              "type": "address"
            },
            {
              "internalType": "bool",
              "name": "bringBack",
              "type": "bool"
            }
          ],
          "indexed": false,
          "internalType": "struct Types.MintRequest",
          "name": "request",
          "type": "tuple"
        }
      ],
      "name": "MintRequest",
      "type": "event"
    },
    {
      "anonymous": false,
      "inputs": [
        {
          "indexed": true,
          "internalType": "bytes32",
          "name": "role",
          "type": "bytes32"
        },
        {
          "indexed": true,
          "internalType": "bytes32",
          "name": "previousAdminRole",
          "type": "bytes32"
        },
        {
          "indexed": true,
          "internalType": "bytes32",
          "name": "newAdminRole",
          "type": "bytes32"
        }
      ],
      "name": "RoleAdminChanged",
      "type": "event"
    },
    {
      "anonymous": false,
      "inputs": [
        {
          "indexed": true,
          "internalType": "bytes32",
          "name": "role",
          "type": "bytes32"
        },
        {
          "indexed": true,
          "internalType": "address",
          "name": "account",
          "type": "address"
        },
        {
          "indexed": true,
          "internalType": "address",
          "name": "sender",
          "type": "address"
        }
      ],
      "name": "RoleGranted",
      "type": "event"
    },
    {
      "anonymous": false,
      "inputs": [
        {
          "indexed": true,
          "internalType": "bytes32",
          "name": "role",
          "type": "bytes32"
        },
        {
          "indexed": true,
          "internalType": "address",
          "name": "account",
          "type": "address"
        },
        {
          "indexed": true,
          "internalType": "address",
          "name": "sender",
          "type": "address"
        }
      ],
      "name": "RoleRevoked",
      "type": "event"
    },
    {
      "inputs": [],
      "name": "DEFAULT_ADMIN_ROLE",
      "outputs": [
        {
          "internalType": "bytes32",
          "name": "",
          "type": "bytes32"
        }
      ],
      "stateMutability": "view",
      "type": "function"
    },
    {
      "inputs": [],
      "name": "IMA_ROLE",
      "outputs": [
        {
          "internalType": "bytes32",
          "name": "",
          "type": "bytes32"
        }
      ],
      "stateMutability": "view",
      "type": "function"
    },
    {
      "inputs": [],
      "name": "OWNER_ROLE",
      "outputs": [
        {
          "internalType": "bytes32",
          "name": "",
          "type": "bytes32"
        }
      ],
      "stateMutability": "view",
      "type": "function"
    },
    {
      "inputs": [
        {
          "internalType": "string",
          "name": "chainName",
          "type": "string"
        },
        {
          "internalType": "contract IDualChannel721",
          "name": "token",
          "type": "address"
        }
      ],
      "name": "add721Clone",
      "outputs": [],
      "stateMutability": "nonpayable",
      "type": "function"
    },
    {
      "inputs": [
        {
          "internalType": "bytes32",
          "name": "role",
          "type": "bytes32"
        }
      ],
      "name": "getRoleAdmin",
      "outputs": [
        {
          "internalType": "bytes32",
          "name": "",
          "type": "bytes32"
        }
      ],
      "stateMutability": "view",
      "type": "function"
    },
    {
      "inputs": [
        {
          "internalType": "bytes32",
          "name": "role",
          "type": "bytes32"
        },
        {
          "internalType": "uint256",
          "name": "index",
          "type": "uint256"
        }
      ],
      "name": "getRoleMember",
      "outputs": [
        {
          "internalType": "address",
          "name": "",
          "type": "address"
        }
      ],
      "stateMutability": "view",
      "type": "function"
    },
    {
      "inputs": [
        {
          "internalType": "bytes32",
          "name": "role",
          "type": "bytes32"
        }
      ],
      "name": "getRoleMemberCount",
      "outputs": [
        {
          "internalType": "uint256",
          "name": "",
          "type": "uint256"
        }
      ],
      "stateMutability": "view",
      "type": "function"
    },
    {
      "inputs": [
        {
          "internalType": "bytes32",
          "name": "role",
          "type": "bytes32"
        },
        {
          "internalType": "address",
          "name": "account",
          "type": "address"
        }
      ],
      "name": "grantRole",
      "outputs": [],
      "stateMutability": "nonpayable",
      "type": "function"
    },
    {
      "inputs": [
        {
          "internalType": "bytes32",
          "name": "role",
          "type": "bytes32"
        },
        {
          "internalType": "address",
          "name": "account",
          "type": "address"
        }
      ],
      "name": "hasRole",
      "outputs": [
        {
          "internalType": "bool",
          "name": "",
          "type": "bool"
        }
      ],
      "stateMutability": "view",
      "type": "function"
    },
    {
      "inputs": [
        {
          "internalType": "bytes32",
          "name": "",
          "type": "bytes32"
        },
        {
          "internalType": "contract IDualChannel721",
          "name": "",
          "type": "address"
        }
      ],
      "name": "is721Clone",
      "outputs": [
        {
          "internalType": "bool",
          "name": "",
          "type": "bool"
        }
      ],
      "stateMutability": "view",
      "type": "function"
    },
    {
      "inputs": [
        {
          "internalType": "bytes32",
          "name": "schainHash",
          "type": "bytes32"
        },
        {
          "internalType": "address",
          "name": "sender",
          "type": "address"
        },
        {
          "internalType": "bytes",
          "name": "data",
          "type": "bytes"
        }
      ],
      "name": "postMessage",
      "outputs": [],
      "stateMutability": "nonpayable",
      "type": "function"
    },
    {
      "inputs": [
        {
          "internalType": "bytes32",
          "name": "role",
          "type": "bytes32"
        },
        {
          "internalType": "address",
          "name": "account",
          "type": "address"
        }
      ],
      "name": "renounceRole",
      "outputs": [],
      "stateMutability": "nonpayable",
      "type": "function"
    },
    {
      "inputs": [
        {
          "internalType": "bytes32",
          "name": "role",
          "type": "bytes32"
        },
        {
          "internalType": "address",
          "name": "account",
          "type": "address"
        }
      ],
      "name": "revokeRole",
      "outputs": [],
      "stateMutability": "nonpayable",
      "type": "function"
    },
    {
      "inputs": [
        {
          "internalType": "bytes4",
          "name": "interfaceId",
          "type": "bytes4"
        }
      ],
      "name": "supportsInterface",
      "outputs": [
        {
          "internalType": "bool",
          "name": "",
          "type": "bool"
        }
      ],
      "stateMutability": "view",
      "type": "function"
    }
  ],
  "transactionHash": "0xa19d058c3f8095d6d9c26402b41ce28642f76abe06743cc5c06dd1a5a25b635e",
  "args": [],
  "numDeployments": 12,
  "solcInputHash": "8ca00a7f35f8103ab093714894d9a517",
  "bytecode": "0x60806040523480156200001157600080fd5b50620000276000801b33620000a560201b60201c565b620000597fb19546dff01e856fb3f010c267a7b1c60363cf8a4664e21cc89c26224620214e33620000a560201b60201c565b6200009f7f18f7915ceb1a15dd0c3170ef6d30ba89e0bcb07f4fb55858579385663709107e73d2aaa00100000000000000000000000000000000620000a560201b60201c565b62000325565b620000bc8282620000ed60201b620008ba1760201c565b620000e88160016000858152602001908152602001600020620001de60201b6200099a1790919060201c565b505050565b620000ff82826200021660201b60201c565b620001da57600160008084815260200190815260200160002060000160008373ffffffffffffffffffffffffffffffffffffffff1673ffffffffffffffffffffffffffffffffffffffff16815260200190815260200160002060006101000a81548160ff0219169083151502179055506200017f6200028060201b60201c565b73ffffffffffffffffffffffffffffffffffffffff168173ffffffffffffffffffffffffffffffffffffffff16837f2f8788117e7eff1d82e926ec794901d17c78024a50270940304540a733656f0d60405160405180910390a45b5050565b60006200020e836000018373ffffffffffffffffffffffffffffffffffffffff1660001b6200028860201b60201c565b905092915050565b600080600084815260200190815260200160002060000160008373ffffffffffffffffffffffffffffffffffffffff1673ffffffffffffffffffffffffffffffffffffffff16815260200190815260200160002060009054906101000a900460ff16905092915050565b600033905090565b60006200029c83836200030260201b60201c565b620002f7578260000182908060018154018082558091505060019003906000526020600020016000909190919091505582600001805490508360010160008481526020019081526020016000208190555060019050620002fc565b600090505b92915050565b600080836001016000848152602001908152602001600020541415905092915050565b611dfd80620003356000396000f3fe608060405234801561001057600080fd5b50600436106100ea5760003560e01c806391d148541161008c578063d547741f11610066578063d547741f14610281578063dcc9e39f1461029d578063e58378bb146102b9578063f81299b9146102d7576100ea565b806391d1485414610203578063a217fddf14610233578063ca15c87314610251576100ea565b80632f2ff15d116100c85780632f2ff15d1461017f57806336568abe1461019b578063884cee5a146101b75780639010d07c146101d3576100ea565b806301ffc9a7146100ef578063248a9ca31461011f5780632925847e1461014f575b600080fd5b610109600480360381019061010491906111af565b6102f5565b60405161011691906111f7565b60405180910390f35b61013960048036038101906101349190611248565b61036f565b6040516101469190611284565b60405180910390f35b6101696004803603810190610164919061130f565b61038e565b60405161017691906111f7565b60405180910390f35b6101996004803603810190610194919061137b565b6103bd565b005b6101b560048036038101906101b0919061137b565b6103de565b005b6101d160048036038101906101cc9190611420565b610461565b005b6101ed60048036038101906101e891906114ca565b610643565b6040516101fa9190611519565b60405180910390f35b61021d6004803603810190610218919061137b565b610672565b60405161022a91906111f7565b60405180910390f35b61023b6106dc565b6040516102489190611284565b60405180910390f35b61026b60048036038101906102669190611248565b6106e3565b6040516102789190611543565b60405180910390f35b61029b6004803603810190610296919061137b565b610707565b005b6102b760048036038101906102b2919061169f565b610728565b005b6102c1610872565b6040516102ce9190611284565b60405180910390f35b6102df610896565b6040516102ec9190611284565b60405180910390f35b60007f5a05180f000000000000000000000000000000000000000000000000000000007bffffffffffffffffffffffffffffffffffffffffffffffffffffffff1916827bffffffffffffffffffffffffffffffffffffffffffffffffffffffff191614806103685750610367826109ca565b5b9050919050565b6000806000838152602001908152602001600020600101549050919050565b60026020528160005260406000206020528060005260406000206000915091509054906101000a900460ff1681565b6103c68261036f565b6103cf81610a44565b6103d98383610a58565b505050565b6103e6610a8c565b73ffffffffffffffffffffffffffffffffffffffff168173ffffffffffffffffffffffffffffffffffffffff1614610453576040517f08c379a000000000000000000000000000000000000000000000000000000000815260040161044a9061177e565b60405180910390fd5b61045d8282610a94565b5050565b61048b7f18f7915ceb1a15dd0c3170ef6d30ba89e0bcb07f4fb55858579385663709107e33610672565b6104ca576040517f08c379a00000000000000000000000000000000000000000000000000000000081526004016104c1906117ea565b60405180910390fd5b600082828101906104db91906118b3565b9050600260008681526020019081526020016000206000826020015173ffffffffffffffffffffffffffffffffffffffff1673ffffffffffffffffffffffffffffffffffffffff16815260200190815260200160002060009054906101000a900460ff1661057e576040517f08c379a00000000000000000000000000000000000000000000000000000000081526004016105759061192c565b60405180910390fd5b806020015173ffffffffffffffffffffffffffffffffffffffff1663f9d8cfe3826040518263ffffffff1660e01b81526004016105bb91906119bf565b600060405180830381600087803b1580156105d557600080fd5b505af11580156105e9573d6000803e3d6000fd5b505050508373ffffffffffffffffffffffffffffffffffffffff16857fefc02047c0bfa1f88a27184a97e0781f698c19c1269ba2d790d6e23406ed5d598360405161063491906119bf565b60405180910390a35050505050565b600061066a8260016000868152602001908152602001600020610ac890919063ffffffff16565b905092915050565b600080600084815260200190815260200160002060000160008373ffffffffffffffffffffffffffffffffffffffff1673ffffffffffffffffffffffffffffffffffffffff16815260200190815260200160002060009054906101000a900460ff16905092915050565b6000801b81565b600061070060016000848152602001908152602001600020610ae2565b9050919050565b6107108261036f565b61071981610a44565b6107238383610a94565b505050565b6107527fb19546dff01e856fb3f010c267a7b1c60363cf8a4664e21cc89c26224620214e33610672565b610791576040517f08c379a000000000000000000000000000000000000000000000000000000000815260040161078890611a26565b60405180910390fd5b6000826040516020016107a49190611ab7565b60405160208183030381529060405280519060200120905060016002600083815260200190815260200160002060008473ffffffffffffffffffffffffffffffffffffffff1673ffffffffffffffffffffffffffffffffffffffff16815260200190815260200160002060006101000a81548160ff021916908315150217905550600115158273ffffffffffffffffffffffffffffffffffffffff16827fb714a1131f0c43c3c9f5ac25d468370f4be4da9fa4c83fdd8abccdbc5b52eeed60405160405180910390a4505050565b7fb19546dff01e856fb3f010c267a7b1c60363cf8a4664e21cc89c26224620214e81565b7f18f7915ceb1a15dd0c3170ef6d30ba89e0bcb07f4fb55858579385663709107e81565b6108c48282610672565b61099657600160008084815260200190815260200160002060000160008373ffffffffffffffffffffffffffffffffffffffff1673ffffffffffffffffffffffffffffffffffffffff16815260200190815260200160002060006101000a81548160ff02191690831515021790555061093b610a8c565b73ffffffffffffffffffffffffffffffffffffffff168173ffffffffffffffffffffffffffffffffffffffff16837f2f8788117e7eff1d82e926ec794901d17c78024a50270940304540a733656f0d60405160405180910390a45b5050565b60006109c2836000018373ffffffffffffffffffffffffffffffffffffffff1660001b610af7565b905092915050565b60007f7965db0b000000000000000000000000000000000000000000000000000000007bffffffffffffffffffffffffffffffffffffffffffffffffffffffff1916827bffffffffffffffffffffffffffffffffffffffffffffffffffffffff19161480610a3d5750610a3c82610b67565b5b9050919050565b610a5581610a50610a8c565b610bd1565b50565b610a6282826108ba565b610a87816001600085815260200190815260200160002061099a90919063ffffffff16565b505050565b600033905090565b610a9e8282610c56565b610ac38160016000858152602001908152602001600020610d3790919063ffffffff16565b505050565b6000610ad78360000183610d67565b60001c905092915050565b6000610af082600001610d92565b9050919050565b6000610b038383610da3565b610b5c578260000182908060018154018082558091505060019003906000526020600020016000909190919091505582600001805490508360010160008481526020019081526020016000208190555060019050610b61565b600090505b92915050565b60007f01ffc9a7000000000000000000000000000000000000000000000000000000007bffffffffffffffffffffffffffffffffffffffffffffffffffffffff1916827bffffffffffffffffffffffffffffffffffffffffffffffffffffffff1916149050919050565b610bdb8282610672565b610c5257610be881610dc6565b610bf68360001c6020610df3565b604051602001610c07929190611b66565b6040516020818303038152906040526040517f08c379a0000000000000000000000000000000000000000000000000000000008152600401610c499190611bd9565b60405180910390fd5b5050565b610c608282610672565b15610d3357600080600084815260200190815260200160002060000160008373ffffffffffffffffffffffffffffffffffffffff1673ffffffffffffffffffffffffffffffffffffffff16815260200190815260200160002060006101000a81548160ff021916908315150217905550610cd8610a8c565b73ffffffffffffffffffffffffffffffffffffffff168173ffffffffffffffffffffffffffffffffffffffff16837ff6391f5c32d9c69d2a47ea670b442974b53935d1edc7fd64eb21e047a839171b60405160405180910390a45b5050565b6000610d5f836000018373ffffffffffffffffffffffffffffffffffffffff1660001b61102f565b905092915050565b6000826000018281548110610d7f57610d7e611bfb565b5b9060005260206000200154905092915050565b600081600001805490509050919050565b600080836001016000848152602001908152602001600020541415905092915050565b6060610dec8273ffffffffffffffffffffffffffffffffffffffff16601460ff16610df3565b9050919050565b606060006002836002610e069190611c59565b610e109190611c9b565b67ffffffffffffffff811115610e2957610e28611574565b5b6040519080825280601f01601f191660200182016040528015610e5b5781602001600182028036833780820191505090505b5090507f300000000000000000000000000000000000000000000000000000000000000081600081518110610e9357610e92611bfb565b5b60200101907effffffffffffffffffffffffffffffffffffffffffffffffffffffffffffff1916908160001a9053507f780000000000000000000000000000000000000000000000000000000000000081600181518110610ef757610ef6611bfb565b5b60200101907effffffffffffffffffffffffffffffffffffffffffffffffffffffffffffff1916908160001a90535060006001846002610f379190611c59565b610f419190611c9b565b90505b6001811115610fe1577f3031323334353637383961626364656600000000000000000000000000000000600f861660108110610f8357610f82611bfb565b5b1a60f81b828281518110610f9a57610f99611bfb565b5b60200101907effffffffffffffffffffffffffffffffffffffffffffffffffffffffffffff1916908160001a905350600485901c945080610fda90611ccf565b9050610f44565b5060008414611025576040517f08c379a000000000000000000000000000000000000000000000000000000000815260040161101c90611d44565b60405180910390fd5b8091505092915050565b600080836001016000848152602001908152602001600020549050600081146111375760006001826110619190611d64565b90506000600186600001805490506110799190611d64565b90508181146110e857600086600001828154811061109a57611099611bfb565b5b90600052602060002001549050808760000184815481106110be576110bd611bfb565b5b90600052602060002001819055508387600101600083815260200190815260200160002081905550505b856000018054806110fc576110fb611d98565b5b60019003818190600052602060002001600090559055856001016000868152602001908152602001600020600090556001935050505061113d565b60009150505b92915050565b6000604051905090565b600080fd5b600080fd5b60007fffffffff0000000000000000000000000000000000000000000000000000000082169050919050565b61118c81611157565b811461119757600080fd5b50565b6000813590506111a981611183565b92915050565b6000602082840312156111c5576111c461114d565b5b60006111d38482850161119a565b91505092915050565b60008115159050919050565b6111f1816111dc565b82525050565b600060208201905061120c60008301846111e8565b92915050565b6000819050919050565b61122581611212565b811461123057600080fd5b50565b6000813590506112428161121c565b92915050565b60006020828403121561125e5761125d61114d565b5b600061126c84828501611233565b91505092915050565b61127e81611212565b82525050565b60006020820190506112996000830184611275565b92915050565b600073ffffffffffffffffffffffffffffffffffffffff82169050919050565b60006112ca8261129f565b9050919050565b60006112dc826112bf565b9050919050565b6112ec816112d1565b81146112f757600080fd5b50565b600081359050611309816112e3565b92915050565b600080604083850312156113265761132561114d565b5b600061133485828601611233565b9250506020611345858286016112fa565b9150509250929050565b611358816112bf565b811461136357600080fd5b50565b6000813590506113758161134f565b92915050565b600080604083850312156113925761139161114d565b5b60006113a085828601611233565b92505060206113b185828601611366565b9150509250929050565b600080fd5b600080fd5b600080fd5b60008083601f8401126113e0576113df6113bb565b5b8235905067ffffffffffffffff8111156113fd576113fc6113c0565b5b602083019150836001820283011115611419576114186113c5565b5b9250929050565b6000806000806060858703121561143a5761143961114d565b5b600061144887828801611233565b945050602061145987828801611366565b935050604085013567ffffffffffffffff81111561147a57611479611152565b5b611486878288016113ca565b925092505092959194509250565b6000819050919050565b6114a781611494565b81146114b257600080fd5b50565b6000813590506114c48161149e565b92915050565b600080604083850312156114e1576114e061114d565b5b60006114ef85828601611233565b9250506020611500858286016114b5565b9150509250929050565b611513816112bf565b82525050565b600060208201905061152e600083018461150a565b92915050565b61153d81611494565b82525050565b60006020820190506115586000830184611534565b92915050565b600080fd5b6000601f19601f8301169050919050565b7f4e487b7100000000000000000000000000000000000000000000000000000000600052604160045260246000fd5b6115ac82611563565b810181811067ffffffffffffffff821117156115cb576115ca611574565b5b80604052505050565b60006115de611143565b90506115ea82826115a3565b919050565b600067ffffffffffffffff82111561160a57611609611574565b5b61161382611563565b9050602081019050919050565b82818337600083830152505050565b600061164261163d846115ef565b6115d4565b90508281526020810184848401111561165e5761165d61155e565b5b611669848285611620565b509392505050565b600082601f830112611686576116856113bb565b5b813561169684826020860161162f565b91505092915050565b600080604083850312156116b6576116b561114d565b5b600083013567ffffffffffffffff8111156116d4576116d3611152565b5b6116e085828601611671565b92505060206116f1858286016112fa565b9150509250929050565b600082825260208201905092915050565b7f416363657373436f6e74726f6c3a2063616e206f6e6c792072656e6f756e636560008201527f20726f6c657320666f722073656c660000000000000000000000000000000000602082015250565b6000611768602f836116fb565b91506117738261170c565b604082019050919050565b600060208201905081810360008301526117978161175b565b9050919050565b7f4d697373696e6720494d415f524f4c4500000000000000000000000000000000600082015250565b60006117d46010836116fb565b91506117df8261179e565b602082019050919050565b60006020820190508181036000830152611803816117c7565b9050919050565b600080fd5b611818816111dc565b811461182357600080fd5b50565b6000813590506118358161180f565b92915050565b6000608082840312156118515761185061180a565b5b61185b60806115d4565b9050600061186b84828501611366565b600083015250602061187f84828501611366565b602083015250604061189384828501611366565b60408301525060606118a784828501611826565b60608301525092915050565b6000608082840312156118c9576118c861114d565b5b60006118d78482850161183b565b91505092915050565b7f4e6f7420612076616c696420746f6b656e000000000000000000000000000000600082015250565b60006119166011836116fb565b9150611921826118e0565b602082019050919050565b6000602082019050818103600083015261194581611909565b9050919050565b611955816112bf565b82525050565b611964816111dc565b82525050565b608082016000820151611980600085018261194c565b506020820151611993602085018261194c565b5060408201516119a6604085018261194c565b5060608201516119b9606085018261195b565b50505050565b60006080820190506119d4600083018461196a565b92915050565b7f4d697373696e67204f574e45525f524f4c450000000000000000000000000000600082015250565b6000611a106012836116fb565b9150611a1b826119da565b602082019050919050565b60006020820190508181036000830152611a3f81611a03565b9050919050565b600081519050919050565b600081905092915050565b60005b83811015611a7a578082015181840152602081019050611a5f565b60008484015250505050565b6000611a9182611a46565b611a9b8185611a51565b9350611aab818560208601611a5c565b80840191505092915050565b6000611ac38284611a86565b915081905092915050565b7f416363657373436f6e74726f6c3a206163636f756e7420000000000000000000600082015250565b6000611b04601783611a51565b9150611b0f82611ace565b601782019050919050565b7f206973206d697373696e6720726f6c6520000000000000000000000000000000600082015250565b6000611b50601183611a51565b9150611b5b82611b1a565b601182019050919050565b6000611b7182611af7565b9150611b7d8285611a86565b9150611b8882611b43565b9150611b948284611a86565b91508190509392505050565b6000611bab82611a46565b611bb581856116fb565b9350611bc5818560208601611a5c565b611bce81611563565b840191505092915050565b60006020820190508181036000830152611bf38184611ba0565b905092915050565b7f4e487b7100000000000000000000000000000000000000000000000000000000600052603260045260246000fd5b7f4e487b7100000000000000000000000000000000000000000000000000000000600052601160045260246000fd5b6000611c6482611494565b9150611c6f83611494565b9250828202611c7d81611494565b91508282048414831517611c9457611c93611c2a565b5b5092915050565b6000611ca682611494565b9150611cb183611494565b9250828201905080821115611cc957611cc8611c2a565b5b92915050565b6000611cda82611494565b915060008203611ced57611cec611c2a565b5b600182039050919050565b7f537472696e67733a20686578206c656e67746820696e73756666696369656e74600082015250565b6000611d2e6020836116fb565b9150611d3982611cf8565b602082019050919050565b60006020820190508181036000830152611d5d81611d21565b9050919050565b6000611d6f82611494565b9150611d7a83611494565b9250828203905081811115611d9257611d91611c2a565b5b92915050565b7f4e487b7100000000000000000000000000000000000000000000000000000000600052603160045260246000fdfea26469706673582212201e29cf391704de7d867e600dc0a6a23e091a750cde5ac108e39ffdf4c2e0eb7b64736f6c63430008110033",
  "devdoc": {
    "kind": "dev",
    "methods": {
      "getRoleAdmin(bytes32)": {
        "details": "Returns the admin role that controls `role`. See {grantRole} and {revokeRole}. To change a role's admin, use {_setRoleAdmin}."
      },
      "getRoleMember(bytes32,uint256)": {
        "details": "Returns one of the accounts that have `role`. `index` must be a value between 0 and {getRoleMemberCount}, non-inclusive. Role bearers are not sorted in any particular way, and their ordering may change at any point. WARNING: When using {getRoleMember} and {getRoleMemberCount}, make sure you perform all queries on the same block. See the following https://forum.openzeppelin.com/t/iterating-over-elements-on-enumerableset-in-openzeppelin-contracts/2296[forum post] for more information."
      },
      "getRoleMemberCount(bytes32)": {
        "details": "Returns the number of accounts that have `role`. Can be used together with {getRoleMember} to enumerate all bearers of a role."
      },
      "grantRole(bytes32,address)": {
        "details": "Grants `role` to `account`. If `account` had not been already granted `role`, emits a {RoleGranted} event. Requirements: - the caller must have ``role``'s admin role. May emit a {RoleGranted} event."
      },
      "hasRole(bytes32,address)": {
        "details": "Returns `true` if `account` has been granted `role`."
      },
      "renounceRole(bytes32,address)": {
        "details": "Revokes `role` from the calling account. Roles are often managed via {grantRole} and {revokeRole}: this function's purpose is to provide a mechanism for accounts to lose their privileges if they are compromised (such as when a trusted device is misplaced). If the calling account had been revoked `role`, emits a {RoleRevoked} event. Requirements: - the caller must be `account`. May emit a {RoleRevoked} event."
      },
      "revokeRole(bytes32,address)": {
        "details": "Revokes `role` from `account`. If `account` had been granted `role`, emits a {RoleRevoked} event. Requirements: - the caller must have ``role``'s admin role. May emit a {RoleRevoked} event."
      },
      "supportsInterface(bytes4)": {
        "details": "See {IERC165-supportsInterface}."
      }
    },
    "version": 1
  },
  "userdoc": {
    "kind": "user",
    "methods": {},
    "version": 1
  },
  "storageLayout": {
    "storage": [
      {
        "astId": 24,
        "contract": "contracts/NFTProxy.sol:NFTProxy",
        "label": "_roles",
        "offset": 0,
        "slot": "0",
        "type": "t_mapping(t_bytes32,t_struct(RoleData)19_storage)"
      },
      {
        "astId": 334,
        "contract": "contracts/NFTProxy.sol:NFTProxy",
        "label": "_roleMembers",
        "offset": 0,
        "slot": "1",
        "type": "t_mapping(t_bytes32,t_struct(AddressSet)2078_storage)"
      },
      {
        "astId": 2406,
        "contract": "contracts/NFTProxy.sol:NFTProxy",
        "label": "is721Clone",
        "offset": 0,
        "slot": "2",
        "type": "t_mapping(t_bytes32,t_mapping(t_contract(IDualChannel721)2556,t_bool))"
      }
    ],
    "types": {
      "t_address": {
        "encoding": "inplace",
        "label": "address",
        "numberOfBytes": "20"
      },
      "t_array(t_bytes32)dyn_storage": {
        "base": "t_bytes32",
        "encoding": "dynamic_array",
        "label": "bytes32[]",
        "numberOfBytes": "32"
      },
      "t_bool": {
        "encoding": "inplace",
        "label": "bool",
        "numberOfBytes": "1"
      },
      "t_bytes32": {
        "encoding": "inplace",
        "label": "bytes32",
        "numberOfBytes": "32"
      },
      "t_contract(IDualChannel721)2556": {
        "encoding": "inplace",
        "label": "contract IDualChannel721",
        "numberOfBytes": "20"
      },
      "t_mapping(t_address,t_bool)": {
        "encoding": "mapping",
        "key": "t_address",
        "label": "mapping(address => bool)",
        "numberOfBytes": "32",
        "value": "t_bool"
      },
      "t_mapping(t_bytes32,t_mapping(t_contract(IDualChannel721)2556,t_bool))": {
        "encoding": "mapping",
        "key": "t_bytes32",
        "label": "mapping(bytes32 => mapping(contract IDualChannel721 => bool))",
        "numberOfBytes": "32",
        "value": "t_mapping(t_contract(IDualChannel721)2556,t_bool)"
      },
      "t_mapping(t_bytes32,t_struct(AddressSet)2078_storage)": {
        "encoding": "mapping",
        "key": "t_bytes32",
        "label": "mapping(bytes32 => struct EnumerableSet.AddressSet)",
        "numberOfBytes": "32",
        "value": "t_struct(AddressSet)2078_storage"
      },
      "t_mapping(t_bytes32,t_struct(RoleData)19_storage)": {
        "encoding": "mapping",
        "key": "t_bytes32",
        "label": "mapping(bytes32 => struct AccessControl.RoleData)",
        "numberOfBytes": "32",
        "value": "t_struct(RoleData)19_storage"
      },
      "t_mapping(t_bytes32,t_uint256)": {
        "encoding": "mapping",
        "key": "t_bytes32",
        "label": "mapping(bytes32 => uint256)",
        "numberOfBytes": "32",
        "value": "t_uint256"
      },
      "t_mapping(t_contract(IDualChannel721)2556,t_bool)": {
        "encoding": "mapping",
        "key": "t_contract(IDualChannel721)2556",
        "label": "mapping(contract IDualChannel721 => bool)",
        "numberOfBytes": "32",
        "value": "t_bool"
      },
      "t_struct(AddressSet)2078_storage": {
        "encoding": "inplace",
        "label": "struct EnumerableSet.AddressSet",
        "members": [
          {
            "astId": 2077,
            "contract": "contracts/NFTProxy.sol:NFTProxy",
            "label": "_inner",
            "offset": 0,
            "slot": "0",
            "type": "t_struct(Set)1763_storage"
          }
        ],
        "numberOfBytes": "64"
      },
      "t_struct(RoleData)19_storage": {
        "encoding": "inplace",
        "label": "struct AccessControl.RoleData",
        "members": [
          {
            "astId": 16,
            "contract": "contracts/NFTProxy.sol:NFTProxy",
            "label": "members",
            "offset": 0,
            "slot": "0",
            "type": "t_mapping(t_address,t_bool)"
          },
          {
            "astId": 18,
            "contract": "contracts/NFTProxy.sol:NFTProxy",
            "label": "adminRole",
            "offset": 0,
            "slot": "1",
            "type": "t_bytes32"
          }
        ],
        "numberOfBytes": "64"
      },
      "t_struct(Set)1763_storage": {
        "encoding": "inplace",
        "label": "struct EnumerableSet.Set",
        "members": [
          {
            "astId": 1758,
            "contract": "contracts/NFTProxy.sol:NFTProxy",
            "label": "_values",
            "offset": 0,
            "slot": "0",
            "type": "t_array(t_bytes32)dyn_storage"
          },
          {
            "astId": 1762,
            "contract": "contracts/NFTProxy.sol:NFTProxy",
            "label": "_indexes",
            "offset": 0,
            "slot": "1",
            "type": "t_mapping(t_bytes32,t_uint256)"
          }
        ],
        "numberOfBytes": "64"
      },
      "t_uint256": {
        "encoding": "inplace",
        "label": "uint256",
        "numberOfBytes": "32"
      }
    }
  }
}