{
  "address": "0x02891b34B7911A9C68e82C193cd7A6fBf0c3b30A",
  "abi": [
    {
      "inputs": [
        {
          "internalType": "address",
          "name": "_calypsoTarget",
          "type": "address"
        },
        {
          "internalType": "string",
          "name": "_targetChainName",
          "type": "string"
        }
      ],
      "stateMutability": "nonpayable",
      "type": "constructor"
    },
    {
      "inputs": [],
      "name": "TARGET_CHAIN_HASH",
      "outputs": [
        {
          "internalType": "bytes32",
          "name": "",
          "type": "bytes32"
        }
      ],
      "stateMutability": "view",
      "type": "function"
    },
    {
      "inputs": [
        {
          "components": [
            {
              "internalType": "address",
              "name": "to",
              "type": "address"
            },
            {
              "internalType": "address",
              "name": "originToken",
              "type": "address"
            },
            {
              "internalType": "address",
              "name": "targetToken",
              "type": "address"
            },
            {
              "internalType": "bool",
              "name": "bringBack",
              "type": "bool"
            }
          ],
          "internalType": "struct Types.MintRequest",
          "name": "data",
          "type": "tuple"
        }
      ],
      "name": "claim",
      "outputs": [],
      "stateMutability": "nonpayable",
      "type": "function"
    }
  ],
  "transactionHash": "0x6d030114607ec883fa58b742f6dfb61b2c257305ba45ace3e940ddc9e04454c3",
  "args": [
    "0x65B4D3e91873a0Aa3B0E2e4a8796FBF9676F30D3",
    "calypso-staging-v3"
  ],
  "numDeployments": 1,
  "solcInputHash": "07cd131a40f4b35eb98e431dd21177b0",
  "bytecode": "0x60a06040523480156200001157600080fd5b5060405162000915380380620009158339818101604052810190620000379190620002fc565b73d2aaa001000000000000000000000000000000006000806101000a81548173ffffffffffffffffffffffffffffffffffffffff021916908373ffffffffffffffffffffffffffffffffffffffff16021790555081600160006101000a81548173ffffffffffffffffffffffffffffffffffffffff021916908373ffffffffffffffffffffffffffffffffffffffff16021790555080604051602001620000df9190620003af565b60405160208183030381529060405280519060200120608081815250505050620003c8565b6000604051905090565b600080fd5b600080fd5b600073ffffffffffffffffffffffffffffffffffffffff82169050919050565b6000620001458262000118565b9050919050565b620001578162000138565b81146200016357600080fd5b50565b60008151905062000177816200014c565b92915050565b600080fd5b600080fd5b6000601f19601f8301169050919050565b7f4e487b7100000000000000000000000000000000000000000000000000000000600052604160045260246000fd5b620001d28262000187565b810181811067ffffffffffffffff82111715620001f457620001f362000198565b5b80604052505050565b60006200020962000104565b9050620002178282620001c7565b919050565b600067ffffffffffffffff8211156200023a576200023962000198565b5b620002458262000187565b9050602081019050919050565b60005b838110156200027257808201518184015260208101905062000255565b60008484015250505050565b6000620002956200028f846200021c565b620001fd565b905082815260208101848484011115620002b457620002b362000182565b5b620002c184828562000252565b509392505050565b600082601f830112620002e157620002e06200017d565b5b8151620002f38482602086016200027e565b91505092915050565b600080604083850312156200031657620003156200010e565b5b6000620003268582860162000166565b925050602083015167ffffffffffffffff8111156200034a576200034962000113565b5b6200035885828601620002c9565b9150509250929050565b600081519050919050565b600081905092915050565b6000620003858262000362565b6200039181856200036d565b9350620003a381856020860162000252565b80840191505092915050565b6000620003bd828462000378565b915081905092915050565b60805161052b620003ea6000396000818160b3015261016a015261052b6000f3fe608060405234801561001057600080fd5b50600436106100365760003560e01c80634fab0ee31461003b5780638dead66a14610057575b600080fd5b6100556004803603810190610050919061033a565b610075565b005b61005f610168565b60405161006c9190610380565b60405180910390f35b60008054906101000a900473ffffffffffffffffffffffffffffffffffffffff1673ffffffffffffffffffffffffffffffffffffffff1663944892027f0000000000000000000000000000000000000000000000000000000000000000600160009054906101000a900473ffffffffffffffffffffffffffffffffffffffff1684604051602001610106919061040e565b6040516020818303038152906040526040518463ffffffff1660e01b8152600401610133939291906104b7565b600060405180830381600087803b15801561014d57600080fd5b505af1158015610161573d6000803e3d6000fd5b5050505050565b7f000000000000000000000000000000000000000000000000000000000000000081565b6000604051905090565b600080fd5b600080fd5b6000601f19601f8301169050919050565b7f4e487b7100000000000000000000000000000000000000000000000000000000600052604160045260246000fd5b6101e9826101a0565b810181811067ffffffffffffffff82111715610208576102076101b1565b5b80604052505050565b600061021b61018c565b905061022782826101e0565b919050565b600073ffffffffffffffffffffffffffffffffffffffff82169050919050565b60006102578261022c565b9050919050565b6102678161024c565b811461027257600080fd5b50565b6000813590506102848161025e565b92915050565b60008115159050919050565b61029f8161028a565b81146102aa57600080fd5b50565b6000813590506102bc81610296565b92915050565b6000608082840312156102d8576102d761019b565b5b6102e26080610211565b905060006102f284828501610275565b600083015250602061030684828501610275565b602083015250604061031a84828501610275565b604083015250606061032e848285016102ad565b60608301525092915050565b6000608082840312156103505761034f610196565b5b600061035e848285016102c2565b91505092915050565b6000819050919050565b61037a81610367565b82525050565b60006020820190506103956000830184610371565b92915050565b6103a48161024c565b82525050565b6103b38161028a565b82525050565b6080820160008201516103cf600085018261039b565b5060208201516103e2602085018261039b565b5060408201516103f5604085018261039b565b50606082015161040860608501826103aa565b50505050565b600060808201905061042360008301846103b9565b92915050565b6104328161024c565b82525050565b600081519050919050565b600082825260208201905092915050565b60005b83811015610472578082015181840152602081019050610457565b60008484015250505050565b600061048982610438565b6104938185610443565b93506104a3818560208601610454565b6104ac816101a0565b840191505092915050565b60006060820190506104cc6000830186610371565b6104d96020830185610429565b81810360408301526104eb818461047e565b905094935050505056fea2646970667358221220624892e6154308596d05c0c23750a60902200042332cd8b2b70ab4f885a2a44964736f6c63430008110033",
  "devdoc": {
    "author": "Sawyer Cutler",
    "details": "This contract will POST messages to a standard proxy on another chain, in this case the Calypso NFT Hub",
    "kind": "dev",
    "methods": {},
    "title": "In Game Contract",
    "version": 1
  },
  "userdoc": {
    "kind": "user",
    "methods": {},
    "notice": "This is an example contract of a couple of different functions that can enable NFTs to be \"crafted\", \"found\", etc as representation of an on-chain game",
    "version": 1
  },
  "storageLayout": {
    "storage": [
      {
        "astId": 4280,
        "contract": "contracts/InGameContract.sol:InGameContract",
        "label": "proxy",
        "offset": 0,
        "slot": "0",
        "type": "t_contract(IMessageProxyForSchain)4083"
      },
      {
        "astId": 4282,
        "contract": "contracts/InGameContract.sol:InGameContract",
        "label": "calypsoTarget",
        "offset": 0,
        "slot": "1",
        "type": "t_address"
      }
    ],
    "types": {
      "t_address": {
        "encoding": "inplace",
        "label": "address",
        "numberOfBytes": "20"
      },
      "t_contract(IMessageProxyForSchain)4083": {
        "encoding": "inplace",
        "label": "contract IMessageProxyForSchain",
        "numberOfBytes": "20"
      }
    }
  }
}