{
  "address": "0xcC1870FeAaBc32A22795375D2382232a4DB8FB6E",
  "abi": [
    {
      "inputs": [
        {
          "internalType": "string",
          "name": "_originChainName",
          "type": "string"
        }
      ],
      "stateMutability": "nonpayable",
      "type": "constructor"
    },
    {
      "anonymous": false,
      "inputs": [
        {
          "indexed": true,
          "internalType": "address",
          "name": "owner",
          "type": "address"
        },
        {
          "indexed": true,
          "internalType": "address",
          "name": "approved",
          "type": "address"
        },
        {
          "indexed": true,
          "internalType": "uint256",
          "name": "tokenId",
          "type": "uint256"
        }
      ],
      "name": "Approval",
      "type": "event"
    },
    {
      "anonymous": false,
      "inputs": [
        {
          "indexed": true,
          "internalType": "address",
          "name": "owner",
          "type": "address"
        },
        {
          "indexed": true,
          "internalType": "address",
          "name": "operator",
          "type": "address"
        },
        {
          "indexed": false,
          "internalType": "bool",
          "name": "approved",
          "type": "bool"
        }
      ],
      "name": "ApprovalForAll",
      "type": "event"
    },
    {
      "anonymous": false,
      "inputs": [
        {
          "indexed": true,
          "internalType": "bytes32",
          "name": "role",
          "type": "bytes32"
        },
        {
          "indexed": true,
          "internalType": "bytes32",
          "name": "previousAdminRole",
          "type": "bytes32"
        },
        {
          "indexed": true,
          "internalType": "bytes32",
          "name": "newAdminRole",
          "type": "bytes32"
        }
      ],
      "name": "RoleAdminChanged",
      "type": "event"
    },
    {
      "anonymous": false,
      "inputs": [
        {
          "indexed": true,
          "internalType": "bytes32",
          "name": "role",
          "type": "bytes32"
        },
        {
          "indexed": true,
          "internalType": "address",
          "name": "account",
          "type": "address"
        },
        {
          "indexed": true,
          "internalType": "address",
          "name": "sender",
          "type": "address"
        }
      ],
      "name": "RoleGranted",
      "type": "event"
    },
    {
      "anonymous": false,
      "inputs": [
        {
          "indexed": true,
          "internalType": "bytes32",
          "name": "role",
          "type": "bytes32"
        },
        {
          "indexed": true,
          "internalType": "address",
          "name": "account",
          "type": "address"
        },
        {
          "indexed": true,
          "internalType": "address",
          "name": "sender",
          "type": "address"
        }
      ],
      "name": "RoleRevoked",
      "type": "event"
    },
    {
      "anonymous": false,
      "inputs": [
        {
          "indexed": true,
          "internalType": "address",
          "name": "from",
          "type": "address"
        },
        {
          "indexed": true,
          "internalType": "address",
          "name": "to",
          "type": "address"
        },
        {
          "indexed": true,
          "internalType": "uint256",
          "name": "tokenId",
          "type": "uint256"
        }
      ],
      "name": "Transfer",
      "type": "event"
    },
    {
      "inputs": [],
      "name": "BURNER_ROLE",
      "outputs": [
        {
          "internalType": "bytes32",
          "name": "",
          "type": "bytes32"
        }
      ],
      "stateMutability": "view",
      "type": "function"
    },
    {
      "inputs": [],
      "name": "DEFAULT_ADMIN_ROLE",
      "outputs": [
        {
          "internalType": "bytes32",
          "name": "",
          "type": "bytes32"
        }
      ],
      "stateMutability": "view",
      "type": "function"
    },
    {
      "inputs": [],
      "name": "MINTER_ROLE",
      "outputs": [
        {
          "internalType": "bytes32",
          "name": "",
          "type": "bytes32"
        }
      ],
      "stateMutability": "view",
      "type": "function"
    },
    {
      "inputs": [],
      "name": "ORIGIN_CHAIN_HASH",
      "outputs": [
        {
          "internalType": "bytes32",
          "name": "",
          "type": "bytes32"
        }
      ],
      "stateMutability": "view",
      "type": "function"
    },
    {
      "inputs": [
        {
          "internalType": "address",
          "name": "to",
          "type": "address"
        },
        {
          "internalType": "uint256",
          "name": "tokenId",
          "type": "uint256"
        }
      ],
      "name": "approve",
      "outputs": [],
      "stateMutability": "nonpayable",
      "type": "function"
    },
    {
      "inputs": [
        {
          "internalType": "address",
          "name": "owner",
          "type": "address"
        }
      ],
      "name": "balanceOf",
      "outputs": [
        {
          "internalType": "uint256",
          "name": "",
          "type": "uint256"
        }
      ],
      "stateMutability": "view",
      "type": "function"
    },
    {
      "inputs": [
        {
          "internalType": "uint256",
          "name": "tokenId",
          "type": "uint256"
        }
      ],
      "name": "burn",
      "outputs": [],
      "stateMutability": "nonpayable",
      "type": "function"
    },
    {
      "inputs": [
        {
          "internalType": "uint256",
          "name": "tokenId",
          "type": "uint256"
        }
      ],
      "name": "getApproved",
      "outputs": [
        {
          "internalType": "address",
          "name": "",
          "type": "address"
        }
      ],
      "stateMutability": "view",
      "type": "function"
    },
    {
      "inputs": [
        {
          "internalType": "bytes32",
          "name": "role",
          "type": "bytes32"
        }
      ],
      "name": "getRoleAdmin",
      "outputs": [
        {
          "internalType": "bytes32",
          "name": "",
          "type": "bytes32"
        }
      ],
      "stateMutability": "view",
      "type": "function"
    },
    {
      "inputs": [
        {
          "internalType": "bytes32",
          "name": "role",
          "type": "bytes32"
        },
        {
          "internalType": "uint256",
          "name": "index",
          "type": "uint256"
        }
      ],
      "name": "getRoleMember",
      "outputs": [
        {
          "internalType": "address",
          "name": "",
          "type": "address"
        }
      ],
      "stateMutability": "view",
      "type": "function"
    },
    {
      "inputs": [
        {
          "internalType": "bytes32",
          "name": "role",
          "type": "bytes32"
        }
      ],
      "name": "getRoleMemberCount",
      "outputs": [
        {
          "internalType": "uint256",
          "name": "",
          "type": "uint256"
        }
      ],
      "stateMutability": "view",
      "type": "function"
    },
    {
      "inputs": [
        {
          "internalType": "bytes32",
          "name": "role",
          "type": "bytes32"
        },
        {
          "internalType": "address",
          "name": "account",
          "type": "address"
        }
      ],
      "name": "grantRole",
      "outputs": [],
      "stateMutability": "nonpayable",
      "type": "function"
    },
    {
      "inputs": [
        {
          "internalType": "bytes32",
          "name": "role",
          "type": "bytes32"
        },
        {
          "internalType": "address",
          "name": "account",
          "type": "address"
        }
      ],
      "name": "hasRole",
      "outputs": [
        {
          "internalType": "bool",
          "name": "",
          "type": "bool"
        }
      ],
      "stateMutability": "view",
      "type": "function"
    },
    {
      "inputs": [
        {
          "internalType": "address",
          "name": "owner",
          "type": "address"
        },
        {
          "internalType": "address",
          "name": "operator",
          "type": "address"
        }
      ],
      "name": "isApprovedForAll",
      "outputs": [
        {
          "internalType": "bool",
          "name": "",
          "type": "bool"
        }
      ],
      "stateMutability": "view",
      "type": "function"
    },
    {
      "inputs": [],
      "name": "name",
      "outputs": [
        {
          "internalType": "string",
          "name": "",
          "type": "string"
        }
      ],
      "stateMutability": "view",
      "type": "function"
    },
    {
      "inputs": [
        {
          "internalType": "uint256",
          "name": "tokenId",
          "type": "uint256"
        }
      ],
      "name": "ownerOf",
      "outputs": [
        {
          "internalType": "address",
          "name": "",
          "type": "address"
        }
      ],
      "stateMutability": "view",
      "type": "function"
    },
    {
      "inputs": [
        {
          "internalType": "bytes32",
          "name": "schainHash",
          "type": "bytes32"
        },
        {
          "internalType": "address",
          "name": "sender",
          "type": "address"
        },
        {
          "internalType": "bytes",
          "name": "data",
          "type": "bytes"
        }
      ],
      "name": "postMessage",
      "outputs": [],
      "stateMutability": "nonpayable",
      "type": "function"
    },
    {
      "inputs": [
        {
          "internalType": "bytes32",
          "name": "role",
          "type": "bytes32"
        },
        {
          "internalType": "address",
          "name": "account",
          "type": "address"
        }
      ],
      "name": "renounceRole",
      "outputs": [],
      "stateMutability": "nonpayable",
      "type": "function"
    },
    {
      "inputs": [
        {
          "internalType": "bytes32",
          "name": "role",
          "type": "bytes32"
        },
        {
          "internalType": "address",
          "name": "account",
          "type": "address"
        }
      ],
      "name": "revokeRole",
      "outputs": [],
      "stateMutability": "nonpayable",
      "type": "function"
    },
    {
      "inputs": [
        {
          "internalType": "address",
          "name": "from",
          "type": "address"
        },
        {
          "internalType": "address",
          "name": "to",
          "type": "address"
        },
        {
          "internalType": "uint256",
          "name": "tokenId",
          "type": "uint256"
        }
      ],
      "name": "safeTransferFrom",
      "outputs": [],
      "stateMutability": "nonpayable",
      "type": "function"
    },
    {
      "inputs": [
        {
          "internalType": "address",
          "name": "from",
          "type": "address"
        },
        {
          "internalType": "address",
          "name": "to",
          "type": "address"
        },
        {
          "internalType": "uint256",
          "name": "tokenId",
          "type": "uint256"
        },
        {
          "internalType": "bytes",
          "name": "data",
          "type": "bytes"
        }
      ],
      "name": "safeTransferFrom",
      "outputs": [],
      "stateMutability": "nonpayable",
      "type": "function"
    },
    {
      "inputs": [
        {
          "internalType": "address",
          "name": "operator",
          "type": "address"
        },
        {
          "internalType": "bool",
          "name": "approved",
          "type": "bool"
        }
      ],
      "name": "setApprovalForAll",
      "outputs": [],
      "stateMutability": "nonpayable",
      "type": "function"
    },
    {
      "inputs": [
        {
          "internalType": "bytes4",
          "name": "interfaceId",
          "type": "bytes4"
        }
      ],
      "name": "supportsInterface",
      "outputs": [
        {
          "internalType": "bool",
          "name": "",
          "type": "bool"
        }
      ],
      "stateMutability": "view",
      "type": "function"
    },
    {
      "inputs": [],
      "name": "symbol",
      "outputs": [
        {
          "internalType": "string",
          "name": "",
          "type": "string"
        }
      ],
      "stateMutability": "view",
      "type": "function"
    },
    {
      "inputs": [
        {
          "internalType": "uint256",
          "name": "tokenId",
          "type": "uint256"
        }
      ],
      "name": "tokenURI",
      "outputs": [
        {
          "internalType": "string",
          "name": "",
          "type": "string"
        }
      ],
      "stateMutability": "view",
      "type": "function"
    },
    {
      "inputs": [
        {
          "internalType": "address",
          "name": "from",
          "type": "address"
        },
        {
          "internalType": "address",
          "name": "to",
          "type": "address"
        },
        {
          "internalType": "uint256",
          "name": "tokenId",
          "type": "uint256"
        }
      ],
      "name": "transferFrom",
      "outputs": [],
      "stateMutability": "nonpayable",
      "type": "function"
    }
  ],
  "transactionHash": "0xd2584395766af9ddb37b5dab623aa4305f65aa28e5b45f148fdd91d2079b93d6",
  "args": [
    "staging-utter-unripe-menkar"
  ],
  "numDeployments": 2,
  "solcInputHash": "6270c82901817c8ae909e7bb72b3b937",
  "bytecode": "0x60a06040523480156200001157600080fd5b5060405162004c4538038062004c458339818101604052810190620000379190620005b5565b6040518060400160405280600b81526020017f496e2047616d65204e46540000000000000000000000000000000000000000008152506040518060400160405280600681526020017f494e47414d4500000000000000000000000000000000000000000000000000008152508160029081620000b4919062000851565b508060039081620000c6919062000851565b5050506200010f7f9f2df0fed2c77648de5860a4cc508cd0818c85b8b8a1ab4ceeef8d981c8956a673d2aaa001000000000000000000000000000000006200018c60201b60201c565b620001557f3c11d16cbaffd01df69ce1c404f6340ee057498f5f00246190ea54220576a84873d2aaa001000000000000000000000000000000006200018c60201b60201c565b806040516020016200016891906200097a565b60405160208183030381529060405280519060200120608081815250505062000993565b6200019e8282620001a260201b60201c565b5050565b620001b98282620001ea60201b62000f651760201c565b620001e58160016000858152602001908152602001600020620002db60201b620010451790919060201c565b505050565b620001fc82826200031360201b60201c565b620002d757600160008084815260200190815260200160002060000160008373ffffffffffffffffffffffffffffffffffffffff1673ffffffffffffffffffffffffffffffffffffffff16815260200190815260200160002060006101000a81548160ff0219169083151502179055506200027c6200037d60201b60201c565b73ffffffffffffffffffffffffffffffffffffffff168173ffffffffffffffffffffffffffffffffffffffff16837f2f8788117e7eff1d82e926ec794901d17c78024a50270940304540a733656f0d60405160405180910390a45b5050565b60006200030b836000018373ffffffffffffffffffffffffffffffffffffffff1660001b6200038560201b60201c565b905092915050565b600080600084815260200190815260200160002060000160008373ffffffffffffffffffffffffffffffffffffffff1673ffffffffffffffffffffffffffffffffffffffff16815260200190815260200160002060009054906101000a900460ff16905092915050565b600033905090565b6000620003998383620003ff60201b60201c565b620003f4578260000182908060018154018082558091505060019003906000526020600020016000909190919091505582600001805490508360010160008481526020019081526020016000208190555060019050620003f9565b600090505b92915050565b600080836001016000848152602001908152602001600020541415905092915050565b6000604051905090565b600080fd5b600080fd5b600080fd5b600080fd5b6000601f19601f8301169050919050565b7f4e487b7100000000000000000000000000000000000000000000000000000000600052604160045260246000fd5b6200048b8262000440565b810181811067ffffffffffffffff82111715620004ad57620004ac62000451565b5b80604052505050565b6000620004c262000422565b9050620004d0828262000480565b919050565b600067ffffffffffffffff821115620004f357620004f262000451565b5b620004fe8262000440565b9050602081019050919050565b60005b838110156200052b5780820151818401526020810190506200050e565b60008484015250505050565b60006200054e6200054884620004d5565b620004b6565b9050828152602081018484840111156200056d576200056c6200043b565b5b6200057a8482856200050b565b509392505050565b600082601f8301126200059a576200059962000436565b5b8151620005ac84826020860162000537565b91505092915050565b600060208284031215620005ce57620005cd6200042c565b5b600082015167ffffffffffffffff811115620005ef57620005ee62000431565b5b620005fd8482850162000582565b91505092915050565b600081519050919050565b7f4e487b7100000000000000000000000000000000000000000000000000000000600052602260045260246000fd5b600060028204905060018216806200065957607f821691505b6020821081036200066f576200066e62000611565b5b50919050565b60008190508160005260206000209050919050565b60006020601f8301049050919050565b600082821b905092915050565b600060088302620006d97fffffffffffffffffffffffffffffffffffffffffffffffffffffffffffffffff826200069a565b620006e586836200069a565b95508019841693508086168417925050509392505050565b6000819050919050565b6000819050919050565b6000620007326200072c6200072684620006fd565b62000707565b620006fd565b9050919050565b6000819050919050565b6200074e8362000711565b620007666200075d8262000739565b848454620006a7565b825550505050565b600090565b6200077d6200076e565b6200078a81848462000743565b505050565b5b81811015620007b257620007a660008262000773565b60018101905062000790565b5050565b601f8211156200080157620007cb8162000675565b620007d6846200068a565b81016020851015620007e6578190505b620007fe620007f5856200068a565b8301826200078f565b50505b505050565b600082821c905092915050565b6000620008266000198460080262000806565b1980831691505092915050565b600062000841838362000813565b9150826002028217905092915050565b6200085c8262000606565b67ffffffffffffffff81111562000878576200087762000451565b5b62000884825462000640565b62000891828285620007b6565b600060209050601f831160018114620008c95760008415620008b4578287015190505b620008c0858262000833565b86555062000930565b601f198416620008d98662000675565b60005b828110156200090357848901518255600182019150602085019450602081019050620008dc565b868310156200092357848901516200091f601f89168262000813565b8355505b6001600288020188555050505b505050505050565b600081905092915050565b6000620009508262000606565b6200095c818562000938565b93506200096e8185602086016200050b565b80840191505092915050565b600062000988828462000943565b915081905092915050565b60805161428f620009b660003960008181610a7a0152610cd2015261428f6000f3fe608060405234801561001057600080fd5b506004361061018e5760003560e01c8063884cee5a116100de578063a43cc5d411610097578063ca15c87311610071578063ca15c873146104a5578063d5391393146104d5578063d547741f146104f3578063e985e9c51461050f5761018e565b8063a43cc5d41461043b578063b88d4fde14610459578063c87b56dd146104755761018e565b8063884cee5a146103675780639010d07c1461038357806391d14854146103b357806395d89b41146103e3578063a217fddf14610401578063a22cb4651461041f5761018e565b8063282c51f31161014b57806342842e0e1161012557806342842e0e146102cf57806342966c68146102eb5780636352211e1461030757806370a08231146103375761018e565b8063282c51f3146102795780632f2ff15d1461029757806336568abe146102b35761018e565b806301ffc9a71461019357806306fdde03146101c3578063081812fc146101e1578063095ea7b31461021157806323b872dd1461022d578063248a9ca314610249575b600080fd5b6101ad60048036038101906101a89190612a8c565b61053f565b6040516101ba9190612ad4565b60405180910390f35b6101cb610551565b6040516101d89190612b7f565b60405180910390f35b6101fb60048036038101906101f69190612bd7565b6105e3565b6040516102089190612c45565b60405180910390f35b61022b60048036038101906102269190612c8c565b610629565b005b61024760048036038101906102429190612ccc565b610740565b005b610263600480360381019061025e9190612d55565b6107a0565b6040516102709190612d91565b60405180910390f35b6102816107bf565b60405161028e9190612d91565b60405180910390f35b6102b160048036038101906102ac9190612dac565b6107e3565b005b6102cd60048036038101906102c89190612dac565b610804565b005b6102e960048036038101906102e49190612ccc565b610887565b005b61030560048036038101906103009190612bd7565b6108a7565b005b610321600480360381019061031c9190612bd7565b61093b565b60405161032e9190612c45565b60405180910390f35b610351600480360381019061034c9190612dec565b6109c1565b60405161035e9190612e28565b60405180910390f35b610381600480360381019061037c9190612ea8565b610a78565b005b61039d60048036038101906103989190612f1c565b610b88565b6040516103aa9190612c45565b60405180910390f35b6103cd60048036038101906103c89190612dac565b610bb7565b6040516103da9190612ad4565b60405180910390f35b6103eb610c21565b6040516103f89190612b7f565b60405180910390f35b610409610cb3565b6040516104169190612d91565b60405180910390f35b61043960048036038101906104349190612f88565b610cba565b005b610443610cd0565b6040516104509190612d91565b60405180910390f35b610473600480360381019061046e91906130f8565b610cf4565b005b61048f600480360381019061048a9190612bd7565b610d56565b60405161049c9190612b7f565b60405180910390f35b6104bf60048036038101906104ba9190612d55565b610e68565b6040516104cc9190612e28565b60405180910390f35b6104dd610e8c565b6040516104ea9190612d91565b60405180910390f35b61050d60048036038101906105089190612dac565b610eb0565b005b6105296004803603810190610524919061317b565b610ed1565b6040516105369190612ad4565b60405180910390f35b600061054a82611075565b9050919050565b606060028054610560906131ea565b80601f016020809104026020016040519081016040528092919081815260200182805461058c906131ea565b80156105d95780601f106105ae576101008083540402835291602001916105d9565b820191906000526020600020905b8154815290600101906020018083116105bc57829003601f168201915b5050505050905090565b60006105ee82611157565b6006600083815260200190815260200160002060009054906101000a900473ffffffffffffffffffffffffffffffffffffffff169050919050565b60006106348261093b565b90508073ffffffffffffffffffffffffffffffffffffffff168373ffffffffffffffffffffffffffffffffffffffff16036106a4576040517f08c379a000000000000000000000000000000000000000000000000000000000815260040161069b9061328d565b60405180910390fd5b8073ffffffffffffffffffffffffffffffffffffffff166106c36111a2565b73ffffffffffffffffffffffffffffffffffffffff1614806106f257506106f1816106ec6111a2565b610ed1565b5b610731576040517f08c379a00000000000000000000000000000000000000000000000000000000081526004016107289061331f565b60405180910390fd5b61073b83836111aa565b505050565b61075161074b6111a2565b82611263565b610790576040517f08c379a0000000000000000000000000000000000000000000000000000000008152600401610787906133b1565b60405180910390fd5b61079b8383836112f8565b505050565b6000806000838152602001908152602001600020600101549050919050565b7f3c11d16cbaffd01df69ce1c404f6340ee057498f5f00246190ea54220576a84881565b6107ec826107a0565b6107f5816115f1565b6107ff8383611605565b505050565b61080c6111a2565b73ffffffffffffffffffffffffffffffffffffffff168173ffffffffffffffffffffffffffffffffffffffff1614610879576040517f08c379a000000000000000000000000000000000000000000000000000000000815260040161087090613443565b60405180910390fd5b6108838282611639565b5050565b6108a283838360405180602001604052806000815250610cf4565b505050565b6108d87f3c11d16cbaffd01df69ce1c404f6340ee057498f5f00246190ea54220576a8486108d36111a2565b610bb7565b806108f057506108ef6108e96111a2565b82611263565b5b61092f576040517f08c379a0000000000000000000000000000000000000000000000000000000008152600401610926906134d5565b60405180910390fd5b6109388161166d565b50565b600080610947836116c0565b9050600073ffffffffffffffffffffffffffffffffffffffff168173ffffffffffffffffffffffffffffffffffffffff16036109b8576040517f08c379a00000000000000000000000000000000000000000000000000000000081526004016109af90613541565b60405180910390fd5b80915050919050565b60008073ffffffffffffffffffffffffffffffffffffffff168273ffffffffffffffffffffffffffffffffffffffff1603610a31576040517f08c379a0000000000000000000000000000000000000000000000000000000008152600401610a28906135d3565b60405180910390fd5b600560008373ffffffffffffffffffffffffffffffffffffffff1673ffffffffffffffffffffffffffffffffffffffff168152602001908152602001600020549050919050565b7f00000000000000000000000000000000000000000000000000000000000000008414610ada576040517f08c379a0000000000000000000000000000000000000000000000000000000008152600401610ad19061363f565b60405180910390fd5b610b0b7f9f2df0fed2c77648de5860a4cc508cd0818c85b8b8a1ab4ceeef8d981c8956a6610b066111a2565b610bb7565b610b4a576040517f08c379a0000000000000000000000000000000000000000000000000000000008152600401610b41906136ab565b60405180910390fd5b60008282810190610b5b91906137f6565b9050610b6f816000015182602001516116fd565b610b818160200151826040015161191a565b5050505050565b6000610baf826001600086815260200190815260200160002061198790919063ffffffff16565b905092915050565b600080600084815260200190815260200160002060000160008373ffffffffffffffffffffffffffffffffffffffff1673ffffffffffffffffffffffffffffffffffffffff16815260200190815260200160002060009054906101000a900460ff16905092915050565b606060038054610c30906131ea565b80601f0160208091040260200160405190810160405280929190818152602001828054610c5c906131ea565b8015610ca95780601f10610c7e57610100808354040283529160200191610ca9565b820191906000526020600020905b815481529060010190602001808311610c8c57829003601f168201915b5050505050905090565b6000801b81565b610ccc610cc56111a2565b83836119a1565b5050565b7f000000000000000000000000000000000000000000000000000000000000000081565b610d05610cff6111a2565b83611263565b610d44576040517f08c379a0000000000000000000000000000000000000000000000000000000008152600401610d3b906133b1565b60405180910390fd5b610d5084848484611b0d565b50505050565b6060610d6182611157565b6000600860008481526020019081526020016000208054610d81906131ea565b80601f0160208091040260200160405190810160405280929190818152602001828054610dad906131ea565b8015610dfa5780601f10610dcf57610100808354040283529160200191610dfa565b820191906000526020600020905b815481529060010190602001808311610ddd57829003601f168201915b505050505090506000610e0b611b69565b90506000815103610e20578192505050610e63565b600082511115610e55578082604051602001610e3d92919061387b565b60405160208183030381529060405292505050610e63565b610e5e84611b80565b925050505b919050565b6000610e8560016000848152602001908152602001600020611be8565b9050919050565b7f9f2df0fed2c77648de5860a4cc508cd0818c85b8b8a1ab4ceeef8d981c8956a681565b610eb9826107a0565b610ec2816115f1565b610ecc8383611639565b505050565b6000600760008473ffffffffffffffffffffffffffffffffffffffff1673ffffffffffffffffffffffffffffffffffffffff16815260200190815260200160002060008373ffffffffffffffffffffffffffffffffffffffff1673ffffffffffffffffffffffffffffffffffffffff16815260200190815260200160002060009054906101000a900460ff16905092915050565b610f6f8282610bb7565b61104157600160008084815260200190815260200160002060000160008373ffffffffffffffffffffffffffffffffffffffff1673ffffffffffffffffffffffffffffffffffffffff16815260200190815260200160002060006101000a81548160ff021916908315150217905550610fe66111a2565b73ffffffffffffffffffffffffffffffffffffffff168173ffffffffffffffffffffffffffffffffffffffff16837f2f8788117e7eff1d82e926ec794901d17c78024a50270940304540a733656f0d60405160405180910390a45b5050565b600061106d836000018373ffffffffffffffffffffffffffffffffffffffff1660001b611bfd565b905092915050565b60007f80ac58cd000000000000000000000000000000000000000000000000000000007bffffffffffffffffffffffffffffffffffffffffffffffffffffffff1916827bffffffffffffffffffffffffffffffffffffffffffffffffffffffff1916148061114057507f5b5e139f000000000000000000000000000000000000000000000000000000007bffffffffffffffffffffffffffffffffffffffffffffffffffffffff1916827bffffffffffffffffffffffffffffffffffffffffffffffffffffffff1916145b80611150575061114f82611c6d565b5b9050919050565b61116081611ce7565b61119f576040517f08c379a000000000000000000000000000000000000000000000000000000000815260040161119690613541565b60405180910390fd5b50565b600033905090565b816006600083815260200190815260200160002060006101000a81548173ffffffffffffffffffffffffffffffffffffffff021916908373ffffffffffffffffffffffffffffffffffffffff160217905550808273ffffffffffffffffffffffffffffffffffffffff1661121d8361093b565b73ffffffffffffffffffffffffffffffffffffffff167f8c5be1e5ebec7d5bd14f71427d1e84f3dd0314c0f7b2291e5b200ac8c7c3b92560405160405180910390a45050565b60008061126f8361093b565b90508073ffffffffffffffffffffffffffffffffffffffff168473ffffffffffffffffffffffffffffffffffffffff1614806112b157506112b08185610ed1565b5b806112ef57508373ffffffffffffffffffffffffffffffffffffffff166112d7846105e3565b73ffffffffffffffffffffffffffffffffffffffff16145b91505092915050565b8273ffffffffffffffffffffffffffffffffffffffff166113188261093b565b73ffffffffffffffffffffffffffffffffffffffff161461136e576040517f08c379a000000000000000000000000000000000000000000000000000000000815260040161136590613911565b60405180910390fd5b600073ffffffffffffffffffffffffffffffffffffffff168273ffffffffffffffffffffffffffffffffffffffff16036113dd576040517f08c379a00000000000000000000000000000000000000000000000000000000081526004016113d4906139a3565b60405180910390fd5b6113ea8383836001611d28565b8273ffffffffffffffffffffffffffffffffffffffff1661140a8261093b565b73ffffffffffffffffffffffffffffffffffffffff1614611460576040517f08c379a000000000000000000000000000000000000000000000000000000000815260040161145790613911565b60405180910390fd5b6006600082815260200190815260200160002060006101000a81549073ffffffffffffffffffffffffffffffffffffffff02191690556001600560008573ffffffffffffffffffffffffffffffffffffffff1673ffffffffffffffffffffffffffffffffffffffff168152602001908152602001600020600082825403925050819055506001600560008473ffffffffffffffffffffffffffffffffffffffff1673ffffffffffffffffffffffffffffffffffffffff16815260200190815260200160002060008282540192505081905550816004600083815260200190815260200160002060006101000a81548173ffffffffffffffffffffffffffffffffffffffff021916908373ffffffffffffffffffffffffffffffffffffffff160217905550808273ffffffffffffffffffffffffffffffffffffffff168473ffffffffffffffffffffffffffffffffffffffff167fddf252ad1be2c89b69c2b068fc378daa952ba7f163c4a11628f55a4df523b3ef60405160405180910390a46115ec8383836001611e4e565b505050565b611602816115fd6111a2565b611e54565b50565b61160f8282610f65565b611634816001600085815260200190815260200160002061104590919063ffffffff16565b505050565b6116438282611ed9565b6116688160016000858152602001908152602001600020611fba90919063ffffffff16565b505050565b61167681611fea565b6000600860008381526020019081526020016000208054611696906131ea565b9050146116bd576008600082815260200190815260200160002060006116bc91906129c3565b5b50565b60006004600083815260200190815260200160002060009054906101000a900473ffffffffffffffffffffffffffffffffffffffff169050919050565b600073ffffffffffffffffffffffffffffffffffffffff168273ffffffffffffffffffffffffffffffffffffffff160361176c576040517f08c379a000000000000000000000000000000000000000000000000000000000815260040161176390613a0f565b60405180910390fd5b61177581611ce7565b156117b5576040517f08c379a00000000000000000000000000000000000000000000000000000000081526004016117ac90613a7b565b60405180910390fd5b6117c3600083836001611d28565b6117cc81611ce7565b1561180c576040517f08c379a000000000000000000000000000000000000000000000000000000000815260040161180390613a7b565b60405180910390fd5b6001600560008473ffffffffffffffffffffffffffffffffffffffff1673ffffffffffffffffffffffffffffffffffffffff16815260200190815260200160002060008282540192505081905550816004600083815260200190815260200160002060006101000a81548173ffffffffffffffffffffffffffffffffffffffff021916908373ffffffffffffffffffffffffffffffffffffffff160217905550808273ffffffffffffffffffffffffffffffffffffffff16600073ffffffffffffffffffffffffffffffffffffffff167fddf252ad1be2c89b69c2b068fc378daa952ba7f163c4a11628f55a4df523b3ef60405160405180910390a4611916600083836001611e4e565b5050565b61192382611ce7565b611962576040517f08c379a000000000000000000000000000000000000000000000000000000000815260040161195990613b0d565b60405180910390fd5b806008600084815260200190815260200160002090816119829190613cd9565b505050565b60006119968360000183612138565b60001c905092915050565b8173ffffffffffffffffffffffffffffffffffffffff168373ffffffffffffffffffffffffffffffffffffffff1603611a0f576040517f08c379a0000000000000000000000000000000000000000000000000000000008152600401611a0690613df7565b60405180910390fd5b80600760008573ffffffffffffffffffffffffffffffffffffffff1673ffffffffffffffffffffffffffffffffffffffff16815260200190815260200160002060008473ffffffffffffffffffffffffffffffffffffffff1673ffffffffffffffffffffffffffffffffffffffff16815260200190815260200160002060006101000a81548160ff0219169083151502179055508173ffffffffffffffffffffffffffffffffffffffff168373ffffffffffffffffffffffffffffffffffffffff167f17307eab39ab6107e8899845ad3d59bd9653f200f220920489ca2b5937696c3183604051611b009190612ad4565b60405180910390a3505050565b611b188484846112f8565b611b2484848484612163565b611b63576040517f08c379a0000000000000000000000000000000000000000000000000000000008152600401611b5a90613e89565b60405180910390fd5b50505050565b606060405180602001604052806000815250905090565b6060611b8b82611157565b6000611b95611b69565b90506000815111611bb55760405180602001604052806000815250611be0565b80611bbf846122ea565b604051602001611bd092919061387b565b6040516020818303038152906040525b915050919050565b6000611bf6826000016123b8565b9050919050565b6000611c0983836123c9565b611c62578260000182908060018154018082558091505060019003906000526020600020016000909190919091505582600001805490508360010160008481526020019081526020016000208190555060019050611c67565b600090505b92915050565b60007f5a05180f000000000000000000000000000000000000000000000000000000007bffffffffffffffffffffffffffffffffffffffffffffffffffffffff1916827bffffffffffffffffffffffffffffffffffffffffffffffffffffffff19161480611ce05750611cdf826123ec565b5b9050919050565b60008073ffffffffffffffffffffffffffffffffffffffff16611d09836116c0565b73ffffffffffffffffffffffffffffffffffffffff1614159050919050565b6001811115611e4857600073ffffffffffffffffffffffffffffffffffffffff168473ffffffffffffffffffffffffffffffffffffffff1614611dbc5780600560008673ffffffffffffffffffffffffffffffffffffffff1673ffffffffffffffffffffffffffffffffffffffff1681526020019081526020016000206000828254611db49190613ed8565b925050819055505b600073ffffffffffffffffffffffffffffffffffffffff168373ffffffffffffffffffffffffffffffffffffffff1614611e475780600560008573ffffffffffffffffffffffffffffffffffffffff1673ffffffffffffffffffffffffffffffffffffffff1681526020019081526020016000206000828254611e3f9190613f0c565b925050819055505b5b50505050565b50505050565b611e5e8282610bb7565b611ed557611e6b81612466565b611e798360001c6020612493565b604051602001611e8a929190613fd8565b6040516020818303038152906040526040517f08c379a0000000000000000000000000000000000000000000000000000000008152600401611ecc9190612b7f565b60405180910390fd5b5050565b611ee38282610bb7565b15611fb657600080600084815260200190815260200160002060000160008373ffffffffffffffffffffffffffffffffffffffff1673ffffffffffffffffffffffffffffffffffffffff16815260200190815260200160002060006101000a81548160ff021916908315150217905550611f5b6111a2565b73ffffffffffffffffffffffffffffffffffffffff168173ffffffffffffffffffffffffffffffffffffffff16837ff6391f5c32d9c69d2a47ea670b442974b53935d1edc7fd64eb21e047a839171b60405160405180910390a45b5050565b6000611fe2836000018373ffffffffffffffffffffffffffffffffffffffff1660001b6126cf565b905092915050565b6000611ff58261093b565b9050612005816000846001611d28565b61200e8261093b565b90506006600083815260200190815260200160002060006101000a81549073ffffffffffffffffffffffffffffffffffffffff02191690556001600560008373ffffffffffffffffffffffffffffffffffffffff1673ffffffffffffffffffffffffffffffffffffffff168152602001908152602001600020600082825403925050819055506004600083815260200190815260200160002060006101000a81549073ffffffffffffffffffffffffffffffffffffffff021916905581600073ffffffffffffffffffffffffffffffffffffffff168273ffffffffffffffffffffffffffffffffffffffff167fddf252ad1be2c89b69c2b068fc378daa952ba7f163c4a11628f55a4df523b3ef60405160405180910390a4612134816000846001611e4e565b5050565b60008260000182815481106121505761214f614012565b5b9060005260206000200154905092915050565b60006121848473ffffffffffffffffffffffffffffffffffffffff166127e3565b156122dd578373ffffffffffffffffffffffffffffffffffffffff1663150b7a026121ad6111a2565b8786866040518563ffffffff1660e01b81526004016121cf9493929190614096565b6020604051808303816000875af192505050801561220b57506040513d601f19601f8201168201806040525081019061220891906140f7565b60015b61228d573d806000811461223b576040519150601f19603f3d011682016040523d82523d6000602084013e612240565b606091505b506000815103612285576040517f08c379a000000000000000000000000000000000000000000000000000000000815260040161227c90613e89565b60405180910390fd5b805181602001fd5b63150b7a0260e01b7bffffffffffffffffffffffffffffffffffffffffffffffffffffffff1916817bffffffffffffffffffffffffffffffffffffffffffffffffffffffff1916149150506122e2565b600190505b949350505050565b6060600060016122f984612806565b01905060008167ffffffffffffffff81111561231857612317612fcd565b5b6040519080825280601f01601f19166020018201604052801561234a5781602001600182028036833780820191505090505b509050600082602001820190505b6001156123ad578080600190039150507f3031323334353637383961626364656600000000000000000000000000000000600a86061a8153600a85816123a1576123a0614124565b5b04945060008503612358575b819350505050919050565b600081600001805490509050919050565b600080836001016000848152602001908152602001600020541415905092915050565b60007f7965db0b000000000000000000000000000000000000000000000000000000007bffffffffffffffffffffffffffffffffffffffffffffffffffffffff1916827bffffffffffffffffffffffffffffffffffffffffffffffffffffffff1916148061245f575061245e82612959565b5b9050919050565b606061248c8273ffffffffffffffffffffffffffffffffffffffff16601460ff16612493565b9050919050565b6060600060028360026124a69190614153565b6124b09190613f0c565b67ffffffffffffffff8111156124c9576124c8612fcd565b5b6040519080825280601f01601f1916602001820160405280156124fb5781602001600182028036833780820191505090505b5090507f30000000000000000000000000000000000000000000000000000000000000008160008151811061253357612532614012565b5b60200101907effffffffffffffffffffffffffffffffffffffffffffffffffffffffffffff1916908160001a9053507f78000000000000000000000000000000000000000000000000000000000000008160018151811061259757612596614012565b5b60200101907effffffffffffffffffffffffffffffffffffffffffffffffffffffffffffff1916908160001a905350600060018460026125d79190614153565b6125e19190613f0c565b90505b6001811115612681577f3031323334353637383961626364656600000000000000000000000000000000600f86166010811061262357612622614012565b5b1a60f81b82828151811061263a57612639614012565b5b60200101907effffffffffffffffffffffffffffffffffffffffffffffffffffffffffffff1916908160001a905350600485901c94508061267a90614195565b90506125e4565b50600084146126c5576040517f08c379a00000000000000000000000000000000000000000000000000000000081526004016126bc9061420a565b60405180910390fd5b8091505092915050565b600080836001016000848152602001908152602001600020549050600081146127d75760006001826127019190613ed8565b90506000600186600001805490506127199190613ed8565b905081811461278857600086600001828154811061273a57612739614012565b5b906000526020600020015490508087600001848154811061275e5761275d614012565b5b90600052602060002001819055508387600101600083815260200190815260200160002081905550505b8560000180548061279c5761279b61422a565b5b6001900381819060005260206000200160009055905585600101600086815260200190815260200160002060009055600193505050506127dd565b60009150505b92915050565b6000808273ffffffffffffffffffffffffffffffffffffffff163b119050919050565b600080600090507a184f03e93ff9f4daa797ed6e38ed64bf6a1f0100000000000000008310612864577a184f03e93ff9f4daa797ed6e38ed64bf6a1f010000000000000000838161285a57612859614124565b5b0492506040810190505b6d04ee2d6d415b85acef810000000083106128a1576d04ee2d6d415b85acef8100000000838161289757612896614124565b5b0492506020810190505b662386f26fc1000083106128d057662386f26fc1000083816128c6576128c5614124565b5b0492506010810190505b6305f5e10083106128f9576305f5e10083816128ef576128ee614124565b5b0492506008810190505b612710831061291e57612710838161291457612913614124565b5b0492506004810190505b60648310612941576064838161293757612936614124565b5b0492506002810190505b600a8310612950576001810190505b80915050919050565b60007f01ffc9a7000000000000000000000000000000000000000000000000000000007bffffffffffffffffffffffffffffffffffffffffffffffffffffffff1916827bffffffffffffffffffffffffffffffffffffffffffffffffffffffff1916149050919050565b5080546129cf906131ea565b6000825580601f106129e15750612a00565b601f0160209004906000526020600020908101906129ff9190612a03565b5b50565b5b80821115612a1c576000816000905550600101612a04565b5090565b6000604051905090565b600080fd5b600080fd5b60007fffffffff0000000000000000000000000000000000000000000000000000000082169050919050565b612a6981612a34565b8114612a7457600080fd5b50565b600081359050612a8681612a60565b92915050565b600060208284031215612aa257612aa1612a2a565b5b6000612ab084828501612a77565b91505092915050565b60008115159050919050565b612ace81612ab9565b82525050565b6000602082019050612ae96000830184612ac5565b92915050565b600081519050919050565b600082825260208201905092915050565b60005b83811015612b29578082015181840152602081019050612b0e565b60008484015250505050565b6000601f19601f8301169050919050565b6000612b5182612aef565b612b5b8185612afa565b9350612b6b818560208601612b0b565b612b7481612b35565b840191505092915050565b60006020820190508181036000830152612b998184612b46565b905092915050565b6000819050919050565b612bb481612ba1565b8114612bbf57600080fd5b50565b600081359050612bd181612bab565b92915050565b600060208284031215612bed57612bec612a2a565b5b6000612bfb84828501612bc2565b91505092915050565b600073ffffffffffffffffffffffffffffffffffffffff82169050919050565b6000612c2f82612c04565b9050919050565b612c3f81612c24565b82525050565b6000602082019050612c5a6000830184612c36565b92915050565b612c6981612c24565b8114612c7457600080fd5b50565b600081359050612c8681612c60565b92915050565b60008060408385031215612ca357612ca2612a2a565b5b6000612cb185828601612c77565b9250506020612cc285828601612bc2565b9150509250929050565b600080600060608486031215612ce557612ce4612a2a565b5b6000612cf386828701612c77565b9350506020612d0486828701612c77565b9250506040612d1586828701612bc2565b9150509250925092565b6000819050919050565b612d3281612d1f565b8114612d3d57600080fd5b50565b600081359050612d4f81612d29565b92915050565b600060208284031215612d6b57612d6a612a2a565b5b6000612d7984828501612d40565b91505092915050565b612d8b81612d1f565b82525050565b6000602082019050612da66000830184612d82565b92915050565b60008060408385031215612dc357612dc2612a2a565b5b6000612dd185828601612d40565b9250506020612de285828601612c77565b9150509250929050565b600060208284031215612e0257612e01612a2a565b5b6000612e1084828501612c77565b91505092915050565b612e2281612ba1565b82525050565b6000602082019050612e3d6000830184612e19565b92915050565b600080fd5b600080fd5b600080fd5b60008083601f840112612e6857612e67612e43565b5b8235905067ffffffffffffffff811115612e8557612e84612e48565b5b602083019150836001820283011115612ea157612ea0612e4d565b5b9250929050565b60008060008060608587031215612ec257612ec1612a2a565b5b6000612ed087828801612d40565b9450506020612ee187828801612c77565b935050604085013567ffffffffffffffff811115612f0257612f01612a2f565b5b612f0e87828801612e52565b925092505092959194509250565b60008060408385031215612f3357612f32612a2a565b5b6000612f4185828601612d40565b9250506020612f5285828601612bc2565b9150509250929050565b612f6581612ab9565b8114612f7057600080fd5b50565b600081359050612f8281612f5c565b92915050565b60008060408385031215612f9f57612f9e612a2a565b5b6000612fad85828601612c77565b9250506020612fbe85828601612f73565b9150509250929050565b600080fd5b7f4e487b7100000000000000000000000000000000000000000000000000000000600052604160045260246000fd5b61300582612b35565b810181811067ffffffffffffffff8211171561302457613023612fcd565b5b80604052505050565b6000613037612a20565b90506130438282612ffc565b919050565b600067ffffffffffffffff82111561306357613062612fcd565b5b61306c82612b35565b9050602081019050919050565b82818337600083830152505050565b600061309b61309684613048565b61302d565b9050828152602081018484840111156130b7576130b6612fc8565b5b6130c2848285613079565b509392505050565b600082601f8301126130df576130de612e43565b5b81356130ef848260208601613088565b91505092915050565b6000806000806080858703121561311257613111612a2a565b5b600061312087828801612c77565b945050602061313187828801612c77565b935050604061314287828801612bc2565b925050606085013567ffffffffffffffff81111561316357613162612a2f565b5b61316f878288016130ca565b91505092959194509250565b6000806040838503121561319257613191612a2a565b5b60006131a085828601612c77565b92505060206131b185828601612c77565b9150509250929050565b7f4e487b7100000000000000000000000000000000000000000000000000000000600052602260045260246000fd5b6000600282049050600182168061320257607f821691505b602082108103613215576132146131bb565b5b50919050565b7f4552433732313a20617070726f76616c20746f2063757272656e74206f776e6560008201527f7200000000000000000000000000000000000000000000000000000000000000602082015250565b6000613277602183612afa565b91506132828261321b565b604082019050919050565b600060208201905081810360008301526132a68161326a565b9050919050565b7f4552433732313a20617070726f76652063616c6c6572206973206e6f7420746f60008201527f6b656e206f776e6572206f7220617070726f76656420666f7220616c6c000000602082015250565b6000613309603d83612afa565b9150613314826132ad565b604082019050919050565b60006020820190508181036000830152613338816132fc565b9050919050565b7f4552433732313a2063616c6c6572206973206e6f7420746f6b656e206f776e6560008201527f72206f7220617070726f76656400000000000000000000000000000000000000602082015250565b600061339b602d83612afa565b91506133a68261333f565b604082019050919050565b600060208201905081810360008301526133ca8161338e565b9050919050565b7f416363657373436f6e74726f6c3a2063616e206f6e6c792072656e6f756e636560008201527f20726f6c657320666f722073656c660000000000000000000000000000000000602082015250565b600061342d602f83612afa565b9150613438826133d1565b604082019050919050565b6000602082019050818103600083015261345c81613420565b9050919050565b7f4552433732314275726e61626c653a2063616c6c6572206973206e6f74206f7760008201527f6e6572206e6f7220617070726f76656400000000000000000000000000000000602082015250565b60006134bf603083612afa565b91506134ca82613463565b604082019050919050565b600060208201905081810360008301526134ee816134b2565b9050919050565b7f4552433732313a20696e76616c696420746f6b656e2049440000000000000000600082015250565b600061352b601883612afa565b9150613536826134f5565b602082019050919050565b6000602082019050818103600083015261355a8161351e565b9050919050565b7f4552433732313a2061646472657373207a65726f206973206e6f74206120766160008201527f6c6964206f776e65720000000000000000000000000000000000000000000000602082015250565b60006135bd602983612afa565b91506135c882613561565b604082019050919050565b600060208201905081810360008301526135ec816135b0565b9050919050565b7f496e76616c6964204f726967696e20436861696e000000000000000000000000600082015250565b6000613629601483612afa565b9150613634826135f3565b602082019050919050565b600060208201905081810360008301526136588161361c565b9050919050565b7f53656e646572206973206e6f742061204d696e74657200000000000000000000600082015250565b6000613695601683612afa565b91506136a08261365f565b602082019050919050565b600060208201905081810360008301526136c481613688565b9050919050565b600080fd5b600080fd5b600067ffffffffffffffff8211156136f0576136ef612fcd565b5b6136f982612b35565b9050602081019050919050565b6000613719613714846136d5565b61302d565b90508281526020810184848401111561373557613734612fc8565b5b613740848285613079565b509392505050565b600082601f83011261375d5761375c612e43565b5b813561376d848260208601613706565b91505092915050565b60006060828403121561378c5761378b6136cb565b5b613796606061302d565b905060006137a684828501612c77565b60008301525060206137ba84828501612bc2565b602083015250604082013567ffffffffffffffff8111156137de576137dd6136d0565b5b6137ea84828501613748565b60408301525092915050565b60006020828403121561380c5761380b612a2a565b5b600082013567ffffffffffffffff81111561382a57613829612a2f565b5b61383684828501613776565b91505092915050565b600081905092915050565b600061385582612aef565b61385f818561383f565b935061386f818560208601612b0b565b80840191505092915050565b6000613887828561384a565b9150613893828461384a565b91508190509392505050565b7f4552433732313a207472616e736665722066726f6d20696e636f72726563742060008201527f6f776e6572000000000000000000000000000000000000000000000000000000602082015250565b60006138fb602583612afa565b91506139068261389f565b604082019050919050565b6000602082019050818103600083015261392a816138ee565b9050919050565b7f4552433732313a207472616e7366657220746f20746865207a65726f2061646460008201527f7265737300000000000000000000000000000000000000000000000000000000602082015250565b600061398d602483612afa565b915061399882613931565b604082019050919050565b600060208201905081810360008301526139bc81613980565b9050919050565b7f4552433732313a206d696e7420746f20746865207a65726f2061646472657373600082015250565b60006139f9602083612afa565b9150613a04826139c3565b602082019050919050565b60006020820190508181036000830152613a28816139ec565b9050919050565b7f4552433732313a20746f6b656e20616c7265616479206d696e74656400000000600082015250565b6000613a65601c83612afa565b9150613a7082613a2f565b602082019050919050565b60006020820190508181036000830152613a9481613a58565b9050919050565b7f45524337323155524953746f726167653a2055524920736574206f66206e6f6e60008201527f6578697374656e7420746f6b656e000000000000000000000000000000000000602082015250565b6000613af7602e83612afa565b9150613b0282613a9b565b604082019050919050565b60006020820190508181036000830152613b2681613aea565b9050919050565b60008190508160005260206000209050919050565b60006020601f8301049050919050565b600082821b905092915050565b600060088302613b8f7fffffffffffffffffffffffffffffffffffffffffffffffffffffffffffffffff82613b52565b613b998683613b52565b95508019841693508086168417925050509392505050565b6000819050919050565b6000613bd6613bd1613bcc84612ba1565b613bb1565b612ba1565b9050919050565b6000819050919050565b613bf083613bbb565b613c04613bfc82613bdd565b848454613b5f565b825550505050565b600090565b613c19613c0c565b613c24818484613be7565b505050565b5b81811015613c4857613c3d600082613c11565b600181019050613c2a565b5050565b601f821115613c8d57613c5e81613b2d565b613c6784613b42565b81016020851015613c76578190505b613c8a613c8285613b42565b830182613c29565b50505b505050565b600082821c905092915050565b6000613cb060001984600802613c92565b1980831691505092915050565b6000613cc98383613c9f565b9150826002028217905092915050565b613ce282612aef565b67ffffffffffffffff811115613cfb57613cfa612fcd565b5b613d0582546131ea565b613d10828285613c4c565b600060209050601f831160018114613d435760008415613d31578287015190505b613d3b8582613cbd565b865550613da3565b601f198416613d5186613b2d565b60005b82811015613d7957848901518255600182019150602085019450602081019050613d54565b86831015613d965784890151613d92601f891682613c9f565b8355505b6001600288020188555050505b505050505050565b7f4552433732313a20617070726f766520746f2063616c6c657200000000000000600082015250565b6000613de1601983612afa565b9150613dec82613dab565b602082019050919050565b60006020820190508181036000830152613e1081613dd4565b9050919050565b7f4552433732313a207472616e7366657220746f206e6f6e20455243373231526560008201527f63656976657220696d706c656d656e7465720000000000000000000000000000602082015250565b6000613e73603283612afa565b9150613e7e82613e17565b604082019050919050565b60006020820190508181036000830152613ea281613e66565b9050919050565b7f4e487b7100000000000000000000000000000000000000000000000000000000600052601160045260246000fd5b6000613ee382612ba1565b9150613eee83612ba1565b9250828203905081811115613f0657613f05613ea9565b5b92915050565b6000613f1782612ba1565b9150613f2283612ba1565b9250828201905080821115613f3a57613f39613ea9565b5b92915050565b7f416363657373436f6e74726f6c3a206163636f756e7420000000000000000000600082015250565b6000613f7660178361383f565b9150613f8182613f40565b601782019050919050565b7f206973206d697373696e6720726f6c6520000000000000000000000000000000600082015250565b6000613fc260118361383f565b9150613fcd82613f8c565b601182019050919050565b6000613fe382613f69565b9150613fef828561384a565b9150613ffa82613fb5565b9150614006828461384a565b91508190509392505050565b7f4e487b7100000000000000000000000000000000000000000000000000000000600052603260045260246000fd5b600081519050919050565b600082825260208201905092915050565b600061406882614041565b614072818561404c565b9350614082818560208601612b0b565b61408b81612b35565b840191505092915050565b60006080820190506140ab6000830187612c36565b6140b86020830186612c36565b6140c56040830185612e19565b81810360608301526140d7818461405d565b905095945050505050565b6000815190506140f181612a60565b92915050565b60006020828403121561410d5761410c612a2a565b5b600061411b848285016140e2565b91505092915050565b7f4e487b7100000000000000000000000000000000000000000000000000000000600052601260045260246000fd5b600061415e82612ba1565b915061416983612ba1565b925082820261417781612ba1565b9150828204841483151761418e5761418d613ea9565b5b5092915050565b60006141a082612ba1565b9150600082036141b3576141b2613ea9565b5b600182039050919050565b7f537472696e67733a20686578206c656e67746820696e73756666696369656e74600082015250565b60006141f4602083612afa565b91506141ff826141be565b602082019050919050565b60006020820190508181036000830152614223816141e7565b9050919050565b7f4e487b7100000000000000000000000000000000000000000000000000000000600052603160045260246000fdfea26469706673582212209d3bf1540dbd7e7af2b713d9f29652cf11ef8ff85c122c2caec79e7319fbd48e64736f6c63430008110033",
  "devdoc": {
    "kind": "dev",
    "methods": {
      "approve(address,uint256)": {
        "details": "See {IERC721-approve}."
      },
      "balanceOf(address)": {
        "details": "See {IERC721-balanceOf}."
      },
      "getApproved(uint256)": {
        "details": "See {IERC721-getApproved}."
      },
      "getRoleAdmin(bytes32)": {
        "details": "Returns the admin role that controls `role`. See {grantRole} and {revokeRole}. To change a role's admin, use {_setRoleAdmin}."
      },
      "getRoleMember(bytes32,uint256)": {
        "details": "Returns one of the accounts that have `role`. `index` must be a value between 0 and {getRoleMemberCount}, non-inclusive. Role bearers are not sorted in any particular way, and their ordering may change at any point. WARNING: When using {getRoleMember} and {getRoleMemberCount}, make sure you perform all queries on the same block. See the following https://forum.openzeppelin.com/t/iterating-over-elements-on-enumerableset-in-openzeppelin-contracts/2296[forum post] for more information."
      },
      "getRoleMemberCount(bytes32)": {
        "details": "Returns the number of accounts that have `role`. Can be used together with {getRoleMember} to enumerate all bearers of a role."
      },
      "grantRole(bytes32,address)": {
        "details": "Grants `role` to `account`. If `account` had not been already granted `role`, emits a {RoleGranted} event. Requirements: - the caller must have ``role``'s admin role. May emit a {RoleGranted} event."
      },
      "hasRole(bytes32,address)": {
        "details": "Returns `true` if `account` has been granted `role`."
      },
      "isApprovedForAll(address,address)": {
        "details": "See {IERC721-isApprovedForAll}."
      },
      "name()": {
        "details": "See {IERC721Metadata-name}."
      },
      "ownerOf(uint256)": {
        "details": "See {IERC721-ownerOf}."
      },
      "renounceRole(bytes32,address)": {
        "details": "Revokes `role` from the calling account. Roles are often managed via {grantRole} and {revokeRole}: this function's purpose is to provide a mechanism for accounts to lose their privileges if they are compromised (such as when a trusted device is misplaced). If the calling account had been revoked `role`, emits a {RoleRevoked} event. Requirements: - the caller must be `account`. May emit a {RoleRevoked} event."
      },
      "revokeRole(bytes32,address)": {
        "details": "Revokes `role` from `account`. If `account` had been granted `role`, emits a {RoleRevoked} event. Requirements: - the caller must have ``role``'s admin role. May emit a {RoleRevoked} event."
      },
      "safeTransferFrom(address,address,uint256)": {
        "details": "See {IERC721-safeTransferFrom}."
      },
      "safeTransferFrom(address,address,uint256,bytes)": {
        "details": "See {IERC721-safeTransferFrom}."
      },
      "setApprovalForAll(address,bool)": {
        "details": "See {IERC721-setApprovalForAll}."
      },
      "symbol()": {
        "details": "See {IERC721Metadata-symbol}."
      },
      "tokenURI(uint256)": {
        "details": "See {IERC721Metadata-tokenURI}."
      },
      "transferFrom(address,address,uint256)": {
        "details": "See {IERC721-transferFrom}."
      }
    },
    "version": 1
  },
  "userdoc": {
    "kind": "user",
    "methods": {},
    "version": 1
  },
  "storageLayout": {
    "storage": [
      {
        "astId": 24,
        "contract": "contracts/InGameNFT.sol:InGameNFT",
        "label": "_roles",
        "offset": 0,
        "slot": "0",
        "type": "t_mapping(t_bytes32,t_struct(RoleData)19_storage)"
      },
      {
        "astId": 334,
        "contract": "contracts/InGameNFT.sol:InGameNFT",
        "label": "_roleMembers",
        "offset": 0,
        "slot": "1",
        "type": "t_mapping(t_bytes32,t_struct(AddressSet)3597_storage)"
      },
      {
        "astId": 564,
        "contract": "contracts/InGameNFT.sol:InGameNFT",
        "label": "_name",
        "offset": 0,
        "slot": "2",
        "type": "t_string_storage"
      },
      {
        "astId": 566,
        "contract": "contracts/InGameNFT.sol:InGameNFT",
        "label": "_symbol",
        "offset": 0,
        "slot": "3",
        "type": "t_string_storage"
      },
      {
        "astId": 570,
        "contract": "contracts/InGameNFT.sol:InGameNFT",
        "label": "_owners",
        "offset": 0,
        "slot": "4",
        "type": "t_mapping(t_uint256,t_address)"
      },
      {
        "astId": 574,
        "contract": "contracts/InGameNFT.sol:InGameNFT",
        "label": "_balances",
        "offset": 0,
        "slot": "5",
        "type": "t_mapping(t_address,t_uint256)"
      },
      {
        "astId": 578,
        "contract": "contracts/InGameNFT.sol:InGameNFT",
        "label": "_tokenApprovals",
        "offset": 0,
        "slot": "6",
        "type": "t_mapping(t_uint256,t_address)"
      },
      {
        "astId": 584,
        "contract": "contracts/InGameNFT.sol:InGameNFT",
        "label": "_operatorApprovals",
        "offset": 0,
        "slot": "7",
        "type": "t_mapping(t_address,t_mapping(t_address,t_bool))"
      },
      {
        "astId": 1630,
        "contract": "contracts/InGameNFT.sol:InGameNFT",
        "label": "_tokenURIs",
        "offset": 0,
        "slot": "8",
        "type": "t_mapping(t_uint256,t_string_storage)"
      }
    ],
    "types": {
      "t_address": {
        "encoding": "inplace",
        "label": "address",
        "numberOfBytes": "20"
      },
      "t_array(t_bytes32)dyn_storage": {
        "base": "t_bytes32",
        "encoding": "dynamic_array",
        "label": "bytes32[]",
        "numberOfBytes": "32"
      },
      "t_bool": {
        "encoding": "inplace",
        "label": "bool",
        "numberOfBytes": "1"
      },
      "t_bytes32": {
        "encoding": "inplace",
        "label": "bytes32",
        "numberOfBytes": "32"
      },
      "t_mapping(t_address,t_bool)": {
        "encoding": "mapping",
        "key": "t_address",
        "label": "mapping(address => bool)",
        "numberOfBytes": "32",
        "value": "t_bool"
      },
      "t_mapping(t_address,t_mapping(t_address,t_bool))": {
        "encoding": "mapping",
        "key": "t_address",
        "label": "mapping(address => mapping(address => bool))",
        "numberOfBytes": "32",
        "value": "t_mapping(t_address,t_bool)"
      },
      "t_mapping(t_address,t_uint256)": {
        "encoding": "mapping",
        "key": "t_address",
        "label": "mapping(address => uint256)",
        "numberOfBytes": "32",
        "value": "t_uint256"
      },
      "t_mapping(t_bytes32,t_struct(AddressSet)3597_storage)": {
        "encoding": "mapping",
        "key": "t_bytes32",
        "label": "mapping(bytes32 => struct EnumerableSet.AddressSet)",
        "numberOfBytes": "32",
        "value": "t_struct(AddressSet)3597_storage"
      },
      "t_mapping(t_bytes32,t_struct(RoleData)19_storage)": {
        "encoding": "mapping",
        "key": "t_bytes32",
        "label": "mapping(bytes32 => struct AccessControl.RoleData)",
        "numberOfBytes": "32",
        "value": "t_struct(RoleData)19_storage"
      },
      "t_mapping(t_bytes32,t_uint256)": {
        "encoding": "mapping",
        "key": "t_bytes32",
        "label": "mapping(bytes32 => uint256)",
        "numberOfBytes": "32",
        "value": "t_uint256"
      },
      "t_mapping(t_uint256,t_address)": {
        "encoding": "mapping",
        "key": "t_uint256",
        "label": "mapping(uint256 => address)",
        "numberOfBytes": "32",
        "value": "t_address"
      },
      "t_mapping(t_uint256,t_string_storage)": {
        "encoding": "mapping",
        "key": "t_uint256",
        "label": "mapping(uint256 => string)",
        "numberOfBytes": "32",
        "value": "t_string_storage"
      },
      "t_string_storage": {
        "encoding": "bytes",
        "label": "string",
        "numberOfBytes": "32"
      },
      "t_struct(AddressSet)3597_storage": {
        "encoding": "inplace",
        "label": "struct EnumerableSet.AddressSet",
        "members": [
          {
            "astId": 3596,
            "contract": "contracts/InGameNFT.sol:InGameNFT",
            "label": "_inner",
            "offset": 0,
            "slot": "0",
            "type": "t_struct(Set)3282_storage"
          }
        ],
        "numberOfBytes": "64"
      },
      "t_struct(RoleData)19_storage": {
        "encoding": "inplace",
        "label": "struct AccessControl.RoleData",
        "members": [
          {
            "astId": 16,
            "contract": "contracts/InGameNFT.sol:InGameNFT",
            "label": "members",
            "offset": 0,
            "slot": "0",
            "type": "t_mapping(t_address,t_bool)"
          },
          {
            "astId": 18,
            "contract": "contracts/InGameNFT.sol:InGameNFT",
            "label": "adminRole",
            "offset": 0,
            "slot": "1",
            "type": "t_bytes32"
          }
        ],
        "numberOfBytes": "64"
      },
      "t_struct(Set)3282_storage": {
        "encoding": "inplace",
        "label": "struct EnumerableSet.Set",
        "members": [
          {
            "astId": 3277,
            "contract": "contracts/InGameNFT.sol:InGameNFT",
            "label": "_values",
            "offset": 0,
            "slot": "0",
            "type": "t_array(t_bytes32)dyn_storage"
          },
          {
            "astId": 3281,
            "contract": "contracts/InGameNFT.sol:InGameNFT",
            "label": "_indexes",
            "offset": 0,
            "slot": "1",
            "type": "t_mapping(t_bytes32,t_uint256)"
          }
        ],
        "numberOfBytes": "64"
      },
      "t_uint256": {
        "encoding": "inplace",
        "label": "uint256",
        "numberOfBytes": "32"
      }
    }
  }
}